{
	"contracts/ControlStructures.sol": {
		"ControlStructures": {
			"abi": [
				{
					"inputs": [
						{
							"internalType": "uint256",
							"name": "stop",
							"type": "uint256"
						}
					],
					"name": "forLoop",
					"outputs": [
						{
							"internalType": "uint256",
							"name": "",
							"type": "uint256"
						}
					],
					"stateMutability": "pure",
					"type": "function"
				},
				{
					"inputs": [
						{
							"internalType": "uint256",
							"name": "sayi",
							"type": "uint256"
						}
					],
					"name": "ifElse",
					"outputs": [
						{
							"internalType": "uint256",
							"name": "",
							"type": "uint256"
						}
					],
					"stateMutability": "pure",
					"type": "function"
				},
				{
					"inputs": [
						{
							"internalType": "uint256",
							"name": "number",
							"type": "uint256"
						}
					],
					"name": "whileLoop",
					"outputs": [
						{
							"internalType": "uint256",
							"name": "",
							"type": "uint256"
						}
					],
					"stateMutability": "pure",
					"type": "function"
				}
			],
			"devdoc": {
				"kind": "dev",
				"methods": {},
				"version": 1
			},
			"evm": {
				"assembly": "    /* \"contracts/ControlStructures.sol\":60:703  contract ControlStructures{... */\n  mstore(0x40, 0x80)\n  callvalue\n  dup1\n  iszero\n  tag_1\n  jumpi\n  0x00\n  dup1\n  revert\ntag_1:\n  pop\n  dataSize(sub_0)\n  dup1\n  dataOffset(sub_0)\n  0x00\n  codecopy\n  0x00\n  return\nstop\n\nsub_0: assembly {\n        /* \"contracts/ControlStructures.sol\":60:703  contract ControlStructures{... */\n      mstore(0x40, 0x80)\n      callvalue\n      dup1\n      iszero\n      tag_1\n      jumpi\n      0x00\n      dup1\n      revert\n    tag_1:\n      pop\n      jumpi(tag_2, lt(calldatasize, 0x04))\n      shr(0xe0, calldataload(0x00))\n      dup1\n      0x456901e4\n      eq\n      tag_3\n      jumpi\n      dup1\n      0x5a5e80e7\n      eq\n      tag_4\n      jumpi\n      dup1\n      0x950b9954\n      eq\n      tag_5\n      jumpi\n    tag_2:\n      0x00\n      dup1\n      revert\n        /* \"contracts/ControlStructures.sol\":256:495  function forLoop(uint stop) public  pure returns (uint){... */\n    tag_3:\n      tag_6\n      0x04\n      dup1\n      calldatasize\n      sub\n      dup2\n      add\n      swap1\n      tag_7\n      swap2\n      swap1\n      tag_8\n      jump\t// in\n    tag_7:\n      tag_9\n      jump\t// in\n    tag_6:\n      mload(0x40)\n      tag_10\n      swap2\n      swap1\n      tag_11\n      jump\t// in\n    tag_10:\n      mload(0x40)\n      dup1\n      swap2\n      sub\n      swap1\n      return\n        /* \"contracts/ControlStructures.sol\":503:700  function whileLoop(uint number) public  pure returns (uint){... */\n    tag_4:\n      tag_12\n      0x04\n      dup1\n      calldatasize\n      sub\n      dup2\n      add\n      swap1\n      tag_13\n      swap2\n      swap1\n      tag_8\n      jump\t// in\n    tag_13:\n      tag_14\n      jump\t// in\n    tag_12:\n      mload(0x40)\n      tag_15\n      swap2\n      swap1\n      tag_11\n      jump\t// in\n    tag_15:\n      mload(0x40)\n      dup1\n      swap2\n      sub\n      swap1\n      return\n        /* \"contracts/ControlStructures.sol\":95:248  function ifElse(uint256 sayi) public pure returns (uint256){... */\n    tag_5:\n      tag_16\n      0x04\n      dup1\n      calldatasize\n      sub\n      dup2\n      add\n      swap1\n      tag_17\n      swap2\n      swap1\n      tag_8\n      jump\t// in\n    tag_17:\n      tag_18\n      jump\t// in\n    tag_16:\n      mload(0x40)\n      tag_19\n      swap2\n      swap1\n      tag_11\n      jump\t// in\n    tag_19:\n      mload(0x40)\n      dup1\n      swap2\n      sub\n      swap1\n      return\n        /* \"contracts/ControlStructures.sol\":256:495  function forLoop(uint stop) public  pure returns (uint){... */\n    tag_9:\n        /* \"contracts/ControlStructures.sol\":306:310  uint */\n      0x00\n        /* \"contracts/ControlStructures.sol\":322:330  uint sum */\n      dup1\n        /* \"contracts/ControlStructures.sol\":333:334  0 */\n      0x00\n        /* \"contracts/ControlStructures.sol\":322:334  uint sum = 0 */\n      swap1\n      pop\n        /* \"contracts/ControlStructures.sol\":349:355  uint i */\n      0x00\n        /* \"contracts/ControlStructures.sol\":345:467  for(uint i=0; i<10; i++){... */\n    tag_21:\n        /* \"contracts/ControlStructures.sol\":361:363  10 */\n      0x0a\n        /* \"contracts/ControlStructures.sol\":359:360  i */\n      dup2\n        /* \"contracts/ControlStructures.sol\":359:363  i<10 */\n      lt\n        /* \"contracts/ControlStructures.sol\":345:467  for(uint i=0; i<10; i++){... */\n      iszero\n      tag_22\n      jumpi\n        /* \"contracts/ControlStructures.sol\":389:390  i */\n      dup1\n        /* \"contracts/ControlStructures.sol\":384:390  sum+=i */\n      dup3\n      tag_24\n      swap2\n      swap1\n      tag_25\n      jump\t// in\n    tag_24:\n      swap2\n      pop\n        /* \"contracts/ControlStructures.sol\":414:415  i */\n      dup1\n        /* \"contracts/ControlStructures.sol\":408:412  stop */\n      dup5\n        /* \"contracts/ControlStructures.sol\":408:415  stop==i */\n      sub\n        /* \"contracts/ControlStructures.sol\":405:456  if(stop==i){... */\n      iszero\n        /* \"contracts/ControlStructures.sol\":435:440  break */\n      tag_22\n        /* \"contracts/ControlStructures.sol\":405:456  if(stop==i){... */\n      jumpi\n        /* \"contracts/ControlStructures.sol\":365:368  i++ */\n      dup1\n      dup1\n      tag_27\n      swap1\n      tag_28\n      jump\t// in\n    tag_27:\n      swap2\n      pop\n      pop\n        /* \"contracts/ControlStructures.sol\":345:467  for(uint i=0; i<10; i++){... */\n      jump(tag_21)\n    tag_22:\n      pop\n        /* \"contracts/ControlStructures.sol\":484:487  sum */\n      dup1\n        /* \"contracts/ControlStructures.sol\":477:487  return sum */\n      swap2\n      pop\n      pop\n        /* \"contracts/ControlStructures.sol\":256:495  function forLoop(uint stop) public  pure returns (uint){... */\n      swap2\n      swap1\n      pop\n      jump\t// out\n        /* \"contracts/ControlStructures.sol\":503:700  function whileLoop(uint number) public  pure returns (uint){... */\n    tag_14:\n        /* \"contracts/ControlStructures.sol\":557:561  uint */\n      0x00\n        /* \"contracts/ControlStructures.sol\":573:583  uint count */\n      dup1\n        /* \"contracts/ControlStructures.sol\":584:585  0 */\n      0x00\n        /* \"contracts/ControlStructures.sol\":573:585  uint count=0 */\n      swap1\n      pop\n        /* \"contracts/ControlStructures.sol\":596:669  while(number!=0){... */\n    tag_30:\n        /* \"contracts/ControlStructures.sol\":610:611  0 */\n      0x00\n        /* \"contracts/ControlStructures.sol\":602:608  number */\n      dup4\n        /* \"contracts/ControlStructures.sol\":602:611  number!=0 */\n      eq\n        /* \"contracts/ControlStructures.sol\":596:669  while(number!=0){... */\n      tag_31\n      jumpi\n        /* \"contracts/ControlStructures.sol\":627:634  count++ */\n      dup1\n      dup1\n      tag_32\n      swap1\n      tag_28\n      jump\t// in\n    tag_32:\n      swap2\n      pop\n      pop\n        /* \"contracts/ControlStructures.sol\":649:657  number-- */\n      dup3\n      dup1\n      tag_33\n      swap1\n      tag_34\n      jump\t// in\n    tag_33:\n      swap4\n      pop\n      pop\n        /* \"contracts/ControlStructures.sol\":596:669  while(number!=0){... */\n      jump(tag_30)\n    tag_31:\n        /* \"contracts/ControlStructures.sol\":687:692  count */\n      dup1\n        /* \"contracts/ControlStructures.sol\":679:692  return  count */\n      swap2\n      pop\n      pop\n        /* \"contracts/ControlStructures.sol\":503:700  function whileLoop(uint number) public  pure returns (uint){... */\n      swap2\n      swap1\n      pop\n      jump\t// out\n        /* \"contracts/ControlStructures.sol\":95:248  function ifElse(uint256 sayi) public pure returns (uint256){... */\n    tag_18:\n        /* \"contracts/ControlStructures.sol\":146:153  uint256 */\n      0x00\n        /* \"contracts/ControlStructures.sol\":173:175  10 */\n      0x0a\n        /* \"contracts/ControlStructures.sol\":168:172  sayi */\n      dup3\n        /* \"contracts/ControlStructures.sol\":168:175  sayi>10 */\n      gt\n        /* \"contracts/ControlStructures.sol\":165:217  if(sayi>10){... */\n      iszero\n      tag_36\n      jumpi\n        /* \"contracts/ControlStructures.sol\":204:205  1 */\n      0x01\n        /* \"contracts/ControlStructures.sol\":199:203  sayi */\n      dup3\n        /* \"contracts/ControlStructures.sol\":199:205  sayi+1 */\n      tag_37\n      swap2\n      swap1\n      tag_25\n      jump\t// in\n    tag_37:\n        /* \"contracts/ControlStructures.sol\":191:205  return  sayi+1 */\n      swap1\n      pop\n      jump(tag_35)\n        /* \"contracts/ControlStructures.sol\":165:217  if(sayi>10){... */\n    tag_36:\n        /* \"contracts/ControlStructures.sol\":239:240  1 */\n      0x01\n        /* \"contracts/ControlStructures.sol\":234:238  sayi */\n      dup3\n        /* \"contracts/ControlStructures.sol\":234:240  sayi-1 */\n      tag_38\n      swap2\n      swap1\n      tag_39\n      jump\t// in\n    tag_38:\n        /* \"contracts/ControlStructures.sol\":227:240  return sayi-1 */\n      swap1\n      pop\n        /* \"contracts/ControlStructures.sol\":95:248  function ifElse(uint256 sayi) public pure returns (uint256){... */\n    tag_35:\n      swap2\n      swap1\n      pop\n      jump\t// out\n        /* \"#utility.yul\":88:205   */\n    tag_41:\n        /* \"#utility.yul\":197:198   */\n      0x00\n        /* \"#utility.yul\":194:195   */\n      dup1\n        /* \"#utility.yul\":187:199   */\n      revert\n        /* \"#utility.yul\":334:411   */\n    tag_43:\n        /* \"#utility.yul\":371:378   */\n      0x00\n        /* \"#utility.yul\":400:405   */\n      dup2\n        /* \"#utility.yul\":389:405   */\n      swap1\n      pop\n        /* \"#utility.yul\":334:411   */\n      swap2\n      swap1\n      pop\n      jump\t// out\n        /* \"#utility.yul\":417:539   */\n    tag_44:\n        /* \"#utility.yul\":490:514   */\n      tag_54\n        /* \"#utility.yul\":508:513   */\n      dup2\n        /* \"#utility.yul\":490:514   */\n      tag_43\n      jump\t// in\n    tag_54:\n        /* \"#utility.yul\":483:488   */\n      dup2\n        /* \"#utility.yul\":480:515   */\n      eq\n        /* \"#utility.yul\":470:533   */\n      tag_55\n      jumpi\n        /* \"#utility.yul\":529:530   */\n      0x00\n        /* \"#utility.yul\":526:527   */\n      dup1\n        /* \"#utility.yul\":519:531   */\n      revert\n        /* \"#utility.yul\":470:533   */\n    tag_55:\n        /* \"#utility.yul\":417:539   */\n      pop\n      jump\t// out\n        /* \"#utility.yul\":545:684   */\n    tag_45:\n        /* \"#utility.yul\":591:596   */\n      0x00\n        /* \"#utility.yul\":629:635   */\n      dup2\n        /* \"#utility.yul\":616:636   */\n      calldataload\n        /* \"#utility.yul\":607:636   */\n      swap1\n      pop\n        /* \"#utility.yul\":645:678   */\n      tag_57\n        /* \"#utility.yul\":672:677   */\n      dup2\n        /* \"#utility.yul\":645:678   */\n      tag_44\n      jump\t// in\n    tag_57:\n        /* \"#utility.yul\":545:684   */\n      swap3\n      swap2\n      pop\n      pop\n      jump\t// out\n        /* \"#utility.yul\":690:1019   */\n    tag_8:\n        /* \"#utility.yul\":749:755   */\n      0x00\n        /* \"#utility.yul\":798:800   */\n      0x20\n        /* \"#utility.yul\":786:795   */\n      dup3\n        /* \"#utility.yul\":777:784   */\n      dup5\n        /* \"#utility.yul\":773:796   */\n      sub\n        /* \"#utility.yul\":769:801   */\n      slt\n        /* \"#utility.yul\":766:885   */\n      iszero\n      tag_59\n      jumpi\n        /* \"#utility.yul\":804:883   */\n      tag_60\n      tag_41\n      jump\t// in\n    tag_60:\n        /* \"#utility.yul\":766:885   */\n    tag_59:\n        /* \"#utility.yul\":924:925   */\n      0x00\n        /* \"#utility.yul\":949:1002   */\n      tag_61\n        /* \"#utility.yul\":994:1001   */\n      dup5\n        /* \"#utility.yul\":985:991   */\n      dup3\n        /* \"#utility.yul\":974:983   */\n      dup6\n        /* \"#utility.yul\":970:992   */\n      add\n        /* \"#utility.yul\":949:1002   */\n      tag_45\n      jump\t// in\n    tag_61:\n        /* \"#utility.yul\":939:1002   */\n      swap2\n      pop\n        /* \"#utility.yul\":895:1012   */\n      pop\n        /* \"#utility.yul\":690:1019   */\n      swap3\n      swap2\n      pop\n      pop\n      jump\t// out\n        /* \"#utility.yul\":1025:1143   */\n    tag_46:\n        /* \"#utility.yul\":1112:1136   */\n      tag_63\n        /* \"#utility.yul\":1130:1135   */\n      dup2\n        /* \"#utility.yul\":1112:1136   */\n      tag_43\n      jump\t// in\n    tag_63:\n        /* \"#utility.yul\":1107:1110   */\n      dup3\n        /* \"#utility.yul\":1100:1137   */\n      mstore\n        /* \"#utility.yul\":1025:1143   */\n      pop\n      pop\n      jump\t// out\n        /* \"#utility.yul\":1149:1371   */\n    tag_11:\n        /* \"#utility.yul\":1242:1246   */\n      0x00\n        /* \"#utility.yul\":1280:1282   */\n      0x20\n        /* \"#utility.yul\":1269:1278   */\n      dup3\n        /* \"#utility.yul\":1265:1283   */\n      add\n        /* \"#utility.yul\":1257:1283   */\n      swap1\n      pop\n        /* \"#utility.yul\":1293:1364   */\n      tag_65\n        /* \"#utility.yul\":1361:1362   */\n      0x00\n        /* \"#utility.yul\":1350:1359   */\n      dup4\n        /* \"#utility.yul\":1346:1363   */\n      add\n        /* \"#utility.yul\":1337:1343   */\n      dup5\n        /* \"#utility.yul\":1293:1364   */\n      tag_46\n      jump\t// in\n    tag_65:\n        /* \"#utility.yul\":1149:1371   */\n      swap3\n      swap2\n      pop\n      pop\n      jump\t// out\n        /* \"#utility.yul\":1377:1557   */\n    tag_47:\n        /* \"#utility.yul\":1425:1502   */\n      0x4e487b7100000000000000000000000000000000000000000000000000000000\n        /* \"#utility.yul\":1422:1423   */\n      0x00\n        /* \"#utility.yul\":1415:1503   */\n      mstore\n        /* \"#utility.yul\":1522:1526   */\n      0x11\n        /* \"#utility.yul\":1519:1520   */\n      0x04\n        /* \"#utility.yul\":1512:1527   */\n      mstore\n        /* \"#utility.yul\":1546:1550   */\n      0x24\n        /* \"#utility.yul\":1543:1544   */\n      0x00\n        /* \"#utility.yul\":1536:1551   */\n      revert\n        /* \"#utility.yul\":1563:1754   */\n    tag_25:\n        /* \"#utility.yul\":1603:1606   */\n      0x00\n        /* \"#utility.yul\":1622:1642   */\n      tag_68\n        /* \"#utility.yul\":1640:1641   */\n      dup3\n        /* \"#utility.yul\":1622:1642   */\n      tag_43\n      jump\t// in\n    tag_68:\n        /* \"#utility.yul\":1617:1642   */\n      swap2\n      pop\n        /* \"#utility.yul\":1656:1676   */\n      tag_69\n        /* \"#utility.yul\":1674:1675   */\n      dup4\n        /* \"#utility.yul\":1656:1676   */\n      tag_43\n      jump\t// in\n    tag_69:\n        /* \"#utility.yul\":1651:1676   */\n      swap3\n      pop\n        /* \"#utility.yul\":1699:1700   */\n      dup3\n        /* \"#utility.yul\":1696:1697   */\n      dup3\n        /* \"#utility.yul\":1692:1701   */\n      add\n        /* \"#utility.yul\":1685:1701   */\n      swap1\n      pop\n        /* \"#utility.yul\":1720:1723   */\n      dup1\n        /* \"#utility.yul\":1717:1718   */\n      dup3\n        /* \"#utility.yul\":1714:1724   */\n      gt\n        /* \"#utility.yul\":1711:1747   */\n      iszero\n      tag_70\n      jumpi\n        /* \"#utility.yul\":1727:1745   */\n      tag_71\n      tag_47\n      jump\t// in\n    tag_71:\n        /* \"#utility.yul\":1711:1747   */\n    tag_70:\n        /* \"#utility.yul\":1563:1754   */\n      swap3\n      swap2\n      pop\n      pop\n      jump\t// out\n        /* \"#utility.yul\":1760:1993   */\n    tag_28:\n        /* \"#utility.yul\":1799:1802   */\n      0x00\n        /* \"#utility.yul\":1822:1846   */\n      tag_73\n        /* \"#utility.yul\":1840:1845   */\n      dup3\n        /* \"#utility.yul\":1822:1846   */\n      tag_43\n      jump\t// in\n    tag_73:\n        /* \"#utility.yul\":1813:1846   */\n      swap2\n      pop\n        /* \"#utility.yul\":1868:1934   */\n      0xffffffffffffffffffffffffffffffffffffffffffffffffffffffffffffffff\n        /* \"#utility.yul\":1861:1866   */\n      dup3\n        /* \"#utility.yul\":1858:1935   */\n      sub\n        /* \"#utility.yul\":1855:1958   */\n      tag_74\n      jumpi\n        /* \"#utility.yul\":1938:1956   */\n      tag_75\n      tag_47\n      jump\t// in\n    tag_75:\n        /* \"#utility.yul\":1855:1958   */\n    tag_74:\n        /* \"#utility.yul\":1985:1986   */\n      0x01\n        /* \"#utility.yul\":1978:1983   */\n      dup3\n        /* \"#utility.yul\":1974:1987   */\n      add\n        /* \"#utility.yul\":1967:1987   */\n      swap1\n      pop\n        /* \"#utility.yul\":1760:1993   */\n      swap2\n      swap1\n      pop\n      jump\t// out\n        /* \"#utility.yul\":1999:2170   */\n    tag_34:\n        /* \"#utility.yul\":2038:2041   */\n      0x00\n        /* \"#utility.yul\":2061:2085   */\n      tag_77\n        /* \"#utility.yul\":2079:2084   */\n      dup3\n        /* \"#utility.yul\":2061:2085   */\n      tag_43\n      jump\t// in\n    tag_77:\n        /* \"#utility.yul\":2052:2085   */\n      swap2\n      pop\n        /* \"#utility.yul\":2107:2111   */\n      0x00\n        /* \"#utility.yul\":2100:2105   */\n      dup3\n        /* \"#utility.yul\":2097:2112   */\n      sub\n        /* \"#utility.yul\":2094:2135   */\n      tag_78\n      jumpi\n        /* \"#utility.yul\":2115:2133   */\n      tag_79\n      tag_47\n      jump\t// in\n    tag_79:\n        /* \"#utility.yul\":2094:2135   */\n    tag_78:\n        /* \"#utility.yul\":2162:2163   */\n      0x01\n        /* \"#utility.yul\":2155:2160   */\n      dup3\n        /* \"#utility.yul\":2151:2164   */\n      sub\n        /* \"#utility.yul\":2144:2164   */\n      swap1\n      pop\n        /* \"#utility.yul\":1999:2170   */\n      swap2\n      swap1\n      pop\n      jump\t// out\n        /* \"#utility.yul\":2176:2370   */\n    tag_39:\n        /* \"#utility.yul\":2216:2220   */\n      0x00\n        /* \"#utility.yul\":2236:2256   */\n      tag_81\n        /* \"#utility.yul\":2254:2255   */\n      dup3\n        /* \"#utility.yul\":2236:2256   */\n      tag_43\n      jump\t// in\n    tag_81:\n        /* \"#utility.yul\":2231:2256   */\n      swap2\n      pop\n        /* \"#utility.yul\":2270:2290   */\n      tag_82\n        /* \"#utility.yul\":2288:2289   */\n      dup4\n        /* \"#utility.yul\":2270:2290   */\n      tag_43\n      jump\t// in\n    tag_82:\n        /* \"#utility.yul\":2265:2290   */\n      swap3\n      pop\n        /* \"#utility.yul\":2314:2315   */\n      dup3\n        /* \"#utility.yul\":2311:2312   */\n      dup3\n        /* \"#utility.yul\":2307:2316   */\n      sub\n        /* \"#utility.yul\":2299:2316   */\n      swap1\n      pop\n        /* \"#utility.yul\":2338:2339   */\n      dup2\n        /* \"#utility.yul\":2332:2336   */\n      dup2\n        /* \"#utility.yul\":2329:2340   */\n      gt\n        /* \"#utility.yul\":2326:2363   */\n      iszero\n      tag_83\n      jumpi\n        /* \"#utility.yul\":2343:2361   */\n      tag_84\n      tag_47\n      jump\t// in\n    tag_84:\n        /* \"#utility.yul\":2326:2363   */\n    tag_83:\n        /* \"#utility.yul\":2176:2370   */\n      swap3\n      swap2\n      pop\n      pop\n      jump\t// out\n\n    auxdata: 0xa2646970667358221220740f6ee50c539c45789db7cd60dfabea2b98e0648f36b350443d0b5b14508f2564736f6c63430008110033\n}\n",
				"bytecode": {
					"linkReferences": {},
					"object": "608060405234801561001057600080fd5b5061035a806100206000396000f3fe608060405234801561001057600080fd5b50600436106100415760003560e01c8063456901e4146100465780635a5e80e714610076578063950b9954146100a6575b600080fd5b610060600480360381019061005b91906101c5565b6100d6565b60405161006d9190610201565b60405180910390f35b610090600480360381019061008b91906101c5565b61011c565b60405161009d9190610201565b60405180910390f35b6100c060048036038101906100bb91906101c5565b610156565b6040516100cd9190610201565b60405180910390f35b6000806000905060005b600a8110156101125780826100f5919061024b565b91508084031561011257808061010a9061027f565b9150506100e0565b5080915050919050565b600080600090505b6000831461014d5780806101379061027f565b9150508280610145906102c7565b935050610124565b80915050919050565b6000600a8211156101755760018261016e919061024b565b9050610185565b60018261018291906102f0565b90505b919050565b600080fd5b6000819050919050565b6101a28161018f565b81146101ad57600080fd5b50565b6000813590506101bf81610199565b92915050565b6000602082840312156101db576101da61018a565b5b60006101e9848285016101b0565b91505092915050565b6101fb8161018f565b82525050565b600060208201905061021660008301846101f2565b92915050565b7f4e487b7100000000000000000000000000000000000000000000000000000000600052601160045260246000fd5b60006102568261018f565b91506102618361018f565b92508282019050808211156102795761027861021c565b5b92915050565b600061028a8261018f565b91507fffffffffffffffffffffffffffffffffffffffffffffffffffffffffffffffff82036102bc576102bb61021c565b5b600182019050919050565b60006102d28261018f565b9150600082036102e5576102e461021c565b5b600182039050919050565b60006102fb8261018f565b91506103068361018f565b925082820390508181111561031e5761031d61021c565b5b9291505056fea2646970667358221220740f6ee50c539c45789db7cd60dfabea2b98e0648f36b350443d0b5b14508f2564736f6c63430008110033",
					"opcodes": "PUSH1 0x80 PUSH1 0x40 MSTORE CALLVALUE DUP1 ISZERO PUSH2 0x10 JUMPI PUSH1 0x0 DUP1 REVERT JUMPDEST POP PUSH2 0x35A DUP1 PUSH2 0x20 PUSH1 0x0 CODECOPY PUSH1 0x0 RETURN INVALID PUSH1 0x80 PUSH1 0x40 MSTORE CALLVALUE DUP1 ISZERO PUSH2 0x10 JUMPI PUSH1 0x0 DUP1 REVERT JUMPDEST POP PUSH1 0x4 CALLDATASIZE LT PUSH2 0x41 JUMPI PUSH1 0x0 CALLDATALOAD PUSH1 0xE0 SHR DUP1 PUSH4 0x456901E4 EQ PUSH2 0x46 JUMPI DUP1 PUSH4 0x5A5E80E7 EQ PUSH2 0x76 JUMPI DUP1 PUSH4 0x950B9954 EQ PUSH2 0xA6 JUMPI JUMPDEST PUSH1 0x0 DUP1 REVERT JUMPDEST PUSH2 0x60 PUSH1 0x4 DUP1 CALLDATASIZE SUB DUP2 ADD SWAP1 PUSH2 0x5B SWAP2 SWAP1 PUSH2 0x1C5 JUMP JUMPDEST PUSH2 0xD6 JUMP JUMPDEST PUSH1 0x40 MLOAD PUSH2 0x6D SWAP2 SWAP1 PUSH2 0x201 JUMP JUMPDEST PUSH1 0x40 MLOAD DUP1 SWAP2 SUB SWAP1 RETURN JUMPDEST PUSH2 0x90 PUSH1 0x4 DUP1 CALLDATASIZE SUB DUP2 ADD SWAP1 PUSH2 0x8B SWAP2 SWAP1 PUSH2 0x1C5 JUMP JUMPDEST PUSH2 0x11C JUMP JUMPDEST PUSH1 0x40 MLOAD PUSH2 0x9D SWAP2 SWAP1 PUSH2 0x201 JUMP JUMPDEST PUSH1 0x40 MLOAD DUP1 SWAP2 SUB SWAP1 RETURN JUMPDEST PUSH2 0xC0 PUSH1 0x4 DUP1 CALLDATASIZE SUB DUP2 ADD SWAP1 PUSH2 0xBB SWAP2 SWAP1 PUSH2 0x1C5 JUMP JUMPDEST PUSH2 0x156 JUMP JUMPDEST PUSH1 0x40 MLOAD PUSH2 0xCD SWAP2 SWAP1 PUSH2 0x201 JUMP JUMPDEST PUSH1 0x40 MLOAD DUP1 SWAP2 SUB SWAP1 RETURN JUMPDEST PUSH1 0x0 DUP1 PUSH1 0x0 SWAP1 POP PUSH1 0x0 JUMPDEST PUSH1 0xA DUP2 LT ISZERO PUSH2 0x112 JUMPI DUP1 DUP3 PUSH2 0xF5 SWAP2 SWAP1 PUSH2 0x24B JUMP JUMPDEST SWAP2 POP DUP1 DUP5 SUB ISZERO PUSH2 0x112 JUMPI DUP1 DUP1 PUSH2 0x10A SWAP1 PUSH2 0x27F JUMP JUMPDEST SWAP2 POP POP PUSH2 0xE0 JUMP JUMPDEST POP DUP1 SWAP2 POP POP SWAP2 SWAP1 POP JUMP JUMPDEST PUSH1 0x0 DUP1 PUSH1 0x0 SWAP1 POP JUMPDEST PUSH1 0x0 DUP4 EQ PUSH2 0x14D JUMPI DUP1 DUP1 PUSH2 0x137 SWAP1 PUSH2 0x27F JUMP JUMPDEST SWAP2 POP POP DUP3 DUP1 PUSH2 0x145 SWAP1 PUSH2 0x2C7 JUMP JUMPDEST SWAP4 POP POP PUSH2 0x124 JUMP JUMPDEST DUP1 SWAP2 POP POP SWAP2 SWAP1 POP JUMP JUMPDEST PUSH1 0x0 PUSH1 0xA DUP3 GT ISZERO PUSH2 0x175 JUMPI PUSH1 0x1 DUP3 PUSH2 0x16E SWAP2 SWAP1 PUSH2 0x24B JUMP JUMPDEST SWAP1 POP PUSH2 0x185 JUMP JUMPDEST PUSH1 0x1 DUP3 PUSH2 0x182 SWAP2 SWAP1 PUSH2 0x2F0 JUMP JUMPDEST SWAP1 POP JUMPDEST SWAP2 SWAP1 POP JUMP JUMPDEST PUSH1 0x0 DUP1 REVERT JUMPDEST PUSH1 0x0 DUP2 SWAP1 POP SWAP2 SWAP1 POP JUMP JUMPDEST PUSH2 0x1A2 DUP2 PUSH2 0x18F JUMP JUMPDEST DUP2 EQ PUSH2 0x1AD JUMPI PUSH1 0x0 DUP1 REVERT JUMPDEST POP JUMP JUMPDEST PUSH1 0x0 DUP2 CALLDATALOAD SWAP1 POP PUSH2 0x1BF DUP2 PUSH2 0x199 JUMP JUMPDEST SWAP3 SWAP2 POP POP JUMP JUMPDEST PUSH1 0x0 PUSH1 0x20 DUP3 DUP5 SUB SLT ISZERO PUSH2 0x1DB JUMPI PUSH2 0x1DA PUSH2 0x18A JUMP JUMPDEST JUMPDEST PUSH1 0x0 PUSH2 0x1E9 DUP5 DUP3 DUP6 ADD PUSH2 0x1B0 JUMP JUMPDEST SWAP2 POP POP SWAP3 SWAP2 POP POP JUMP JUMPDEST PUSH2 0x1FB DUP2 PUSH2 0x18F JUMP JUMPDEST DUP3 MSTORE POP POP JUMP JUMPDEST PUSH1 0x0 PUSH1 0x20 DUP3 ADD SWAP1 POP PUSH2 0x216 PUSH1 0x0 DUP4 ADD DUP5 PUSH2 0x1F2 JUMP JUMPDEST SWAP3 SWAP2 POP POP JUMP JUMPDEST PUSH32 0x4E487B7100000000000000000000000000000000000000000000000000000000 PUSH1 0x0 MSTORE PUSH1 0x11 PUSH1 0x4 MSTORE PUSH1 0x24 PUSH1 0x0 REVERT JUMPDEST PUSH1 0x0 PUSH2 0x256 DUP3 PUSH2 0x18F JUMP JUMPDEST SWAP2 POP PUSH2 0x261 DUP4 PUSH2 0x18F JUMP JUMPDEST SWAP3 POP DUP3 DUP3 ADD SWAP1 POP DUP1 DUP3 GT ISZERO PUSH2 0x279 JUMPI PUSH2 0x278 PUSH2 0x21C JUMP JUMPDEST JUMPDEST SWAP3 SWAP2 POP POP JUMP JUMPDEST PUSH1 0x0 PUSH2 0x28A DUP3 PUSH2 0x18F JUMP JUMPDEST SWAP2 POP PUSH32 0xFFFFFFFFFFFFFFFFFFFFFFFFFFFFFFFFFFFFFFFFFFFFFFFFFFFFFFFFFFFFFFFF DUP3 SUB PUSH2 0x2BC JUMPI PUSH2 0x2BB PUSH2 0x21C JUMP JUMPDEST JUMPDEST PUSH1 0x1 DUP3 ADD SWAP1 POP SWAP2 SWAP1 POP JUMP JUMPDEST PUSH1 0x0 PUSH2 0x2D2 DUP3 PUSH2 0x18F JUMP JUMPDEST SWAP2 POP PUSH1 0x0 DUP3 SUB PUSH2 0x2E5 JUMPI PUSH2 0x2E4 PUSH2 0x21C JUMP JUMPDEST JUMPDEST PUSH1 0x1 DUP3 SUB SWAP1 POP SWAP2 SWAP1 POP JUMP JUMPDEST PUSH1 0x0 PUSH2 0x2FB DUP3 PUSH2 0x18F JUMP JUMPDEST SWAP2 POP PUSH2 0x306 DUP4 PUSH2 0x18F JUMP JUMPDEST SWAP3 POP DUP3 DUP3 SUB SWAP1 POP DUP2 DUP2 GT ISZERO PUSH2 0x31E JUMPI PUSH2 0x31D PUSH2 0x21C JUMP JUMPDEST JUMPDEST SWAP3 SWAP2 POP POP JUMP INVALID LOG2 PUSH5 0x6970667358 0x22 SLT KECCAK256 PUSH21 0xF6EE50C539C45789DB7CD60DFABEA2B98E0648F36 0xB3 POP DIFFICULTY RETURNDATASIZE SIGNEXTEND JUMPDEST EQ POP DUP16 0x25 PUSH5 0x736F6C6343 STOP ADDMOD GT STOP CALLER "
				},
				"gasEstimates": {
					"creation": {
						"codeDepositCost": "171600",
						"executionCost": "214",
						"totalCost": "171814"
					},
					"external": {
						"forLoop(uint256)": "infinite",
						"ifElse(uint256)": "infinite",
						"whileLoop(uint256)": "infinite"
					}
				},
				"methodIdentifiers": {
					"forLoop(uint256)": "456901e4",
					"ifElse(uint256)": "950b9954",
					"whileLoop(uint256)": "5a5e80e7"
				}
			},
			"storageLayout": {
				"storage": [],
				"types": null
			},
			"userdoc": {
				"kind": "user",
				"methods": {},
				"version": 1
			}
		}
	}
}