{
	"contracts/StringAndBytes.sol": {
		"StringAndBytes": {
			"abi": [
				{
					"inputs": [],
					"name": "convertedText",
					"outputs": [
						{
							"internalType": "string",
							"name": "",
							"type": "string"
						}
					],
					"stateMutability": "view",
					"type": "function"
				},
				{
					"inputs": [],
					"name": "merhaba",
					"outputs": [
						{
							"internalType": "bytes",
							"name": "",
							"type": "bytes"
						}
					],
					"stateMutability": "view",
					"type": "function"
				},
				{
					"inputs": [],
					"name": "metin",
					"outputs": [
						{
							"internalType": "string",
							"name": "",
							"type": "string"
						}
					],
					"stateMutability": "view",
					"type": "function"
				}
			],
			"devdoc": {
				"kind": "dev",
				"methods": {},
				"version": 1
			},
			"evm": {
				"assembly": "    /* \"contracts/StringAndBytes.sol\":60:258  contract StringAndBytes{... */\n  mstore(0x40, 0x80)\n    /* \"contracts/StringAndBytes.sol\":90:129  string public metin= \"Bu bir metindir.\" */\n  mload(0x40)\n  dup1\n  0x40\n  add\n  0x40\n  mstore\n  dup1\n  0x10\n  dup2\n  mstore\n  0x20\n  add\n  0x427520626972206d6574696e6469722e00000000000000000000000000000000\n  dup2\n  mstore\n  pop\n  0x00\n  swap1\n  dup2\n  tag_1\n  swap2\n  swap1\n  tag_2\n  jump\t// in\ntag_1:\n  pop\n    /* \"contracts/StringAndBytes.sol\":138:201  bytes public  merhaba = \"Merhaba dunya ben solidity yaziyorum!\" */\n  mload(0x40)\n  dup1\n  0x60\n  add\n  0x40\n  mstore\n  dup1\n  0x25\n  dup2\n  mstore\n  0x20\n  add\n  data_02f97aa16026639b787b3fe2253a66af3772c2cb2ee1d20e35763247efa14720\n  0x25\n  swap2\n  codecopy\n  0x01\n  swap1\n  dup2\n  tag_3\n  swap2\n  swap1\n  tag_4\n  jump\t// in\ntag_3:\n  pop\n    /* \"contracts/StringAndBytes.sol\":246:253  merhaba */\n  0x01\n    /* \"contracts/StringAndBytes.sol\":210:254  string public convertedText= string(merhaba) */\n  0x02\n  swap1\n  dup2\n  tag_5\n  swap2\n  swap1\n  tag_6\n  jump\t// in\ntag_5:\n  pop\n    /* \"contracts/StringAndBytes.sol\":60:258  contract StringAndBytes{... */\n  callvalue\n  dup1\n  iszero\n  tag_7\n  jumpi\n  0x00\n  dup1\n  revert\ntag_7:\n  pop\n  jump(tag_8)\n    /* \"#utility.yul\":7:106   */\ntag_9:\n    /* \"#utility.yul\":59:65   */\n  0x00\n    /* \"#utility.yul\":93:98   */\n  dup2\n    /* \"#utility.yul\":87:99   */\n  mload\n    /* \"#utility.yul\":77:99   */\n  swap1\n  pop\n    /* \"#utility.yul\":7:106   */\n  swap2\n  swap1\n  pop\n  jump\t// out\n    /* \"#utility.yul\":112:292   */\ntag_10:\n    /* \"#utility.yul\":160:237   */\n  0x4e487b7100000000000000000000000000000000000000000000000000000000\n    /* \"#utility.yul\":157:158   */\n  0x00\n    /* \"#utility.yul\":150:238   */\n  mstore\n    /* \"#utility.yul\":257:261   */\n  0x41\n    /* \"#utility.yul\":254:255   */\n  0x04\n    /* \"#utility.yul\":247:262   */\n  mstore\n    /* \"#utility.yul\":281:285   */\n  0x24\n    /* \"#utility.yul\":278:279   */\n  0x00\n    /* \"#utility.yul\":271:286   */\n  revert\n    /* \"#utility.yul\":298:478   */\ntag_11:\n    /* \"#utility.yul\":346:423   */\n  0x4e487b7100000000000000000000000000000000000000000000000000000000\n    /* \"#utility.yul\":343:344   */\n  0x00\n    /* \"#utility.yul\":336:424   */\n  mstore\n    /* \"#utility.yul\":443:447   */\n  0x22\n    /* \"#utility.yul\":440:441   */\n  0x04\n    /* \"#utility.yul\":433:448   */\n  mstore\n    /* \"#utility.yul\":467:471   */\n  0x24\n    /* \"#utility.yul\":464:465   */\n  0x00\n    /* \"#utility.yul\":457:472   */\n  revert\n    /* \"#utility.yul\":484:804   */\ntag_12:\n    /* \"#utility.yul\":528:534   */\n  0x00\n    /* \"#utility.yul\":565:566   */\n  0x02\n    /* \"#utility.yul\":559:563   */\n  dup3\n    /* \"#utility.yul\":555:567   */\n  div\n    /* \"#utility.yul\":545:567   */\n  swap1\n  pop\n    /* \"#utility.yul\":612:613   */\n  0x01\n    /* \"#utility.yul\":606:610   */\n  dup3\n    /* \"#utility.yul\":602:614   */\n  and\n    /* \"#utility.yul\":633:651   */\n  dup1\n    /* \"#utility.yul\":623:704   */\n  tag_38\n  jumpi\n    /* \"#utility.yul\":689:693   */\n  0x7f\n    /* \"#utility.yul\":681:687   */\n  dup3\n    /* \"#utility.yul\":677:694   */\n  and\n    /* \"#utility.yul\":667:694   */\n  swap2\n  pop\n    /* \"#utility.yul\":623:704   */\ntag_38:\n    /* \"#utility.yul\":751:753   */\n  0x20\n    /* \"#utility.yul\":743:749   */\n  dup3\n    /* \"#utility.yul\":740:754   */\n  lt\n    /* \"#utility.yul\":720:738   */\n  dup2\n    /* \"#utility.yul\":717:755   */\n  sub\n    /* \"#utility.yul\":714:798   */\n  tag_39\n  jumpi\n    /* \"#utility.yul\":770:788   */\n  tag_40\n  tag_11\n  jump\t// in\ntag_40:\n    /* \"#utility.yul\":714:798   */\ntag_39:\n    /* \"#utility.yul\":535:804   */\n  pop\n    /* \"#utility.yul\":484:804   */\n  swap2\n  swap1\n  pop\n  jump\t// out\n    /* \"#utility.yul\":810:951   */\ntag_13:\n    /* \"#utility.yul\":859:863   */\n  0x00\n    /* \"#utility.yul\":882:885   */\n  dup2\n    /* \"#utility.yul\":874:885   */\n  swap1\n  pop\n    /* \"#utility.yul\":905:908   */\n  dup2\n    /* \"#utility.yul\":902:903   */\n  0x00\n    /* \"#utility.yul\":895:909   */\n  mstore\n    /* \"#utility.yul\":939:943   */\n  0x20\n    /* \"#utility.yul\":936:937   */\n  0x00\n    /* \"#utility.yul\":926:944   */\n  keccak256\n    /* \"#utility.yul\":918:944   */\n  swap1\n  pop\n    /* \"#utility.yul\":810:951   */\n  swap2\n  swap1\n  pop\n  jump\t// out\n    /* \"#utility.yul\":957:1050   */\ntag_14:\n    /* \"#utility.yul\":994:1000   */\n  0x00\n    /* \"#utility.yul\":1041:1043   */\n  0x20\n    /* \"#utility.yul\":1036:1038   */\n  0x1f\n    /* \"#utility.yul\":1029:1034   */\n  dup4\n    /* \"#utility.yul\":1025:1039   */\n  add\n    /* \"#utility.yul\":1021:1044   */\n  div\n    /* \"#utility.yul\":1011:1044   */\n  swap1\n  pop\n    /* \"#utility.yul\":957:1050   */\n  swap2\n  swap1\n  pop\n  jump\t// out\n    /* \"#utility.yul\":1056:1163   */\ntag_15:\n    /* \"#utility.yul\":1100:1108   */\n  0x00\n    /* \"#utility.yul\":1150:1155   */\n  dup3\n    /* \"#utility.yul\":1144:1148   */\n  dup3\n    /* \"#utility.yul\":1140:1156   */\n  shl\n    /* \"#utility.yul\":1119:1156   */\n  swap1\n  pop\n    /* \"#utility.yul\":1056:1163   */\n  swap3\n  swap2\n  pop\n  pop\n  jump\t// out\n    /* \"#utility.yul\":1169:1562   */\ntag_16:\n    /* \"#utility.yul\":1238:1244   */\n  0x00\n    /* \"#utility.yul\":1288:1289   */\n  0x08\n    /* \"#utility.yul\":1276:1286   */\n  dup4\n    /* \"#utility.yul\":1272:1290   */\n  mul\n    /* \"#utility.yul\":1311:1408   */\n  tag_45\n    /* \"#utility.yul\":1341:1407   */\n  0xffffffffffffffffffffffffffffffffffffffffffffffffffffffffffffffff\n    /* \"#utility.yul\":1330:1339   */\n  dup3\n    /* \"#utility.yul\":1311:1408   */\n  tag_15\n  jump\t// in\ntag_45:\n    /* \"#utility.yul\":1429:1468   */\n  tag_46\n    /* \"#utility.yul\":1459:1467   */\n  dup7\n    /* \"#utility.yul\":1448:1457   */\n  dup4\n    /* \"#utility.yul\":1429:1468   */\n  tag_15\n  jump\t// in\ntag_46:\n    /* \"#utility.yul\":1417:1468   */\n  swap6\n  pop\n    /* \"#utility.yul\":1501:1505   */\n  dup1\n    /* \"#utility.yul\":1497:1506   */\n  not\n    /* \"#utility.yul\":1490:1495   */\n  dup5\n    /* \"#utility.yul\":1486:1507   */\n  and\n    /* \"#utility.yul\":1477:1507   */\n  swap4\n  pop\n    /* \"#utility.yul\":1550:1554   */\n  dup1\n    /* \"#utility.yul\":1540:1548   */\n  dup7\n    /* \"#utility.yul\":1536:1555   */\n  and\n    /* \"#utility.yul\":1529:1534   */\n  dup5\n    /* \"#utility.yul\":1526:1556   */\n  or\n    /* \"#utility.yul\":1516:1556   */\n  swap3\n  pop\n    /* \"#utility.yul\":1245:1562   */\n  pop\n  pop\n    /* \"#utility.yul\":1169:1562   */\n  swap4\n  swap3\n  pop\n  pop\n  pop\n  jump\t// out\n    /* \"#utility.yul\":1568:1645   */\ntag_17:\n    /* \"#utility.yul\":1605:1612   */\n  0x00\n    /* \"#utility.yul\":1634:1639   */\n  dup2\n    /* \"#utility.yul\":1623:1639   */\n  swap1\n  pop\n    /* \"#utility.yul\":1568:1645   */\n  swap2\n  swap1\n  pop\n  jump\t// out\n    /* \"#utility.yul\":1651:1711   */\ntag_18:\n    /* \"#utility.yul\":1679:1682   */\n  0x00\n    /* \"#utility.yul\":1700:1705   */\n  dup2\n    /* \"#utility.yul\":1693:1705   */\n  swap1\n  pop\n    /* \"#utility.yul\":1651:1711   */\n  swap2\n  swap1\n  pop\n  jump\t// out\n    /* \"#utility.yul\":1717:1859   */\ntag_19:\n    /* \"#utility.yul\":1767:1776   */\n  0x00\n    /* \"#utility.yul\":1800:1853   */\n  tag_50\n    /* \"#utility.yul\":1818:1852   */\n  tag_51\n    /* \"#utility.yul\":1827:1851   */\n  tag_52\n    /* \"#utility.yul\":1845:1850   */\n  dup5\n    /* \"#utility.yul\":1827:1851   */\n  tag_17\n  jump\t// in\ntag_52:\n    /* \"#utility.yul\":1818:1852   */\n  tag_18\n  jump\t// in\ntag_51:\n    /* \"#utility.yul\":1800:1853   */\n  tag_17\n  jump\t// in\ntag_50:\n    /* \"#utility.yul\":1787:1853   */\n  swap1\n  pop\n    /* \"#utility.yul\":1717:1859   */\n  swap2\n  swap1\n  pop\n  jump\t// out\n    /* \"#utility.yul\":1865:1940   */\ntag_20:\n    /* \"#utility.yul\":1908:1911   */\n  0x00\n    /* \"#utility.yul\":1929:1934   */\n  dup2\n    /* \"#utility.yul\":1922:1934   */\n  swap1\n  pop\n    /* \"#utility.yul\":1865:1940   */\n  swap2\n  swap1\n  pop\n  jump\t// out\n    /* \"#utility.yul\":1946:2215   */\ntag_21:\n    /* \"#utility.yul\":2056:2095   */\n  tag_55\n    /* \"#utility.yul\":2087:2094   */\n  dup4\n    /* \"#utility.yul\":2056:2095   */\n  tag_19\n  jump\t// in\ntag_55:\n    /* \"#utility.yul\":2117:2208   */\n  tag_56\n    /* \"#utility.yul\":2166:2207   */\n  tag_57\n    /* \"#utility.yul\":2190:2206   */\n  dup3\n    /* \"#utility.yul\":2166:2207   */\n  tag_20\n  jump\t// in\ntag_57:\n    /* \"#utility.yul\":2158:2164   */\n  dup5\n    /* \"#utility.yul\":2151:2155   */\n  dup5\n    /* \"#utility.yul\":2145:2156   */\n  sload\n    /* \"#utility.yul\":2117:2208   */\n  tag_16\n  jump\t// in\ntag_56:\n    /* \"#utility.yul\":2111:2115   */\n  dup3\n    /* \"#utility.yul\":2104:2209   */\n  sstore\n    /* \"#utility.yul\":2022:2215   */\n  pop\n    /* \"#utility.yul\":1946:2215   */\n  pop\n  pop\n  pop\n  jump\t// out\n    /* \"#utility.yul\":2221:2294   */\ntag_22:\n    /* \"#utility.yul\":2266:2269   */\n  0x00\n    /* \"#utility.yul\":2221:2294   */\n  swap1\n  jump\t// out\n    /* \"#utility.yul\":2300:2489   */\ntag_23:\n    /* \"#utility.yul\":2377:2409   */\n  tag_60\n  tag_22\n  jump\t// in\ntag_60:\n    /* \"#utility.yul\":2418:2483   */\n  tag_61\n    /* \"#utility.yul\":2476:2482   */\n  dup2\n    /* \"#utility.yul\":2468:2474   */\n  dup5\n    /* \"#utility.yul\":2462:2466   */\n  dup5\n    /* \"#utility.yul\":2418:2483   */\n  tag_21\n  jump\t// in\ntag_61:\n    /* \"#utility.yul\":2353:2489   */\n  pop\n    /* \"#utility.yul\":2300:2489   */\n  pop\n  pop\n  jump\t// out\n    /* \"#utility.yul\":2495:2681   */\ntag_24:\n    /* \"#utility.yul\":2555:2675   */\ntag_63:\n    /* \"#utility.yul\":2572:2575   */\n  dup2\n    /* \"#utility.yul\":2565:2570   */\n  dup2\n    /* \"#utility.yul\":2562:2576   */\n  lt\n    /* \"#utility.yul\":2555:2675   */\n  iszero\n  tag_65\n  jumpi\n    /* \"#utility.yul\":2626:2665   */\n  tag_66\n    /* \"#utility.yul\":2663:2664   */\n  0x00\n    /* \"#utility.yul\":2656:2661   */\n  dup3\n    /* \"#utility.yul\":2626:2665   */\n  tag_23\n  jump\t// in\ntag_66:\n    /* \"#utility.yul\":2599:2600   */\n  0x01\n    /* \"#utility.yul\":2592:2597   */\n  dup2\n    /* \"#utility.yul\":2588:2601   */\n  add\n    /* \"#utility.yul\":2579:2601   */\n  swap1\n  pop\n    /* \"#utility.yul\":2555:2675   */\n  jump(tag_63)\ntag_65:\n    /* \"#utility.yul\":2495:2681   */\n  pop\n  pop\n  jump\t// out\n    /* \"#utility.yul\":2687:3230   */\ntag_25:\n    /* \"#utility.yul\":2788:2790   */\n  0x1f\n    /* \"#utility.yul\":2783:2786   */\n  dup3\n    /* \"#utility.yul\":2780:2791   */\n  gt\n    /* \"#utility.yul\":2777:3223   */\n  iszero\n  tag_68\n  jumpi\n    /* \"#utility.yul\":2822:2860   */\n  tag_69\n    /* \"#utility.yul\":2854:2859   */\n  dup2\n    /* \"#utility.yul\":2822:2860   */\n  tag_13\n  jump\t// in\ntag_69:\n    /* \"#utility.yul\":2906:2935   */\n  tag_70\n    /* \"#utility.yul\":2924:2934   */\n  dup5\n    /* \"#utility.yul\":2906:2935   */\n  tag_14\n  jump\t// in\ntag_70:\n    /* \"#utility.yul\":2896:2904   */\n  dup2\n    /* \"#utility.yul\":2892:2936   */\n  add\n    /* \"#utility.yul\":3089:3091   */\n  0x20\n    /* \"#utility.yul\":3077:3087   */\n  dup6\n    /* \"#utility.yul\":3074:3092   */\n  lt\n    /* \"#utility.yul\":3071:3120   */\n  iszero\n  tag_71\n  jumpi\n    /* \"#utility.yul\":3110:3118   */\n  dup2\n    /* \"#utility.yul\":3095:3118   */\n  swap1\n  pop\n    /* \"#utility.yul\":3071:3120   */\ntag_71:\n    /* \"#utility.yul\":3133:3213   */\n  tag_72\n    /* \"#utility.yul\":3189:3211   */\n  tag_73\n    /* \"#utility.yul\":3207:3210   */\n  dup6\n    /* \"#utility.yul\":3189:3211   */\n  tag_14\n  jump\t// in\ntag_73:\n    /* \"#utility.yul\":3179:3187   */\n  dup4\n    /* \"#utility.yul\":3175:3212   */\n  add\n    /* \"#utility.yul\":3162:3173   */\n  dup3\n    /* \"#utility.yul\":3133:3213   */\n  tag_24\n  jump\t// in\ntag_72:\n    /* \"#utility.yul\":2792:3223   */\n  pop\n  pop\n    /* \"#utility.yul\":2777:3223   */\ntag_68:\n    /* \"#utility.yul\":2687:3230   */\n  pop\n  pop\n  pop\n  jump\t// out\n    /* \"#utility.yul\":3236:3353   */\ntag_26:\n    /* \"#utility.yul\":3290:3298   */\n  0x00\n    /* \"#utility.yul\":3340:3345   */\n  dup3\n    /* \"#utility.yul\":3334:3338   */\n  dup3\n    /* \"#utility.yul\":3330:3346   */\n  shr\n    /* \"#utility.yul\":3309:3346   */\n  swap1\n  pop\n    /* \"#utility.yul\":3236:3353   */\n  swap3\n  swap2\n  pop\n  pop\n  jump\t// out\n    /* \"#utility.yul\":3359:3528   */\ntag_27:\n    /* \"#utility.yul\":3403:3409   */\n  0x00\n    /* \"#utility.yul\":3436:3487   */\n  tag_76\n    /* \"#utility.yul\":3484:3485   */\n  0x00\n    /* \"#utility.yul\":3480:3486   */\n  not\n    /* \"#utility.yul\":3472:3477   */\n  dup5\n    /* \"#utility.yul\":3469:3470   */\n  0x08\n    /* \"#utility.yul\":3465:3478   */\n  mul\n    /* \"#utility.yul\":3436:3487   */\n  tag_26\n  jump\t// in\ntag_76:\n    /* \"#utility.yul\":3432:3488   */\n  not\n    /* \"#utility.yul\":3517:3521   */\n  dup1\n    /* \"#utility.yul\":3511:3515   */\n  dup4\n    /* \"#utility.yul\":3507:3522   */\n  and\n    /* \"#utility.yul\":3497:3522   */\n  swap2\n  pop\n    /* \"#utility.yul\":3410:3528   */\n  pop\n    /* \"#utility.yul\":3359:3528   */\n  swap3\n  swap2\n  pop\n  pop\n  jump\t// out\n    /* \"#utility.yul\":3533:3828   */\ntag_28:\n    /* \"#utility.yul\":3609:3613   */\n  0x00\n    /* \"#utility.yul\":3755:3784   */\n  tag_78\n    /* \"#utility.yul\":3780:3783   */\n  dup4\n    /* \"#utility.yul\":3774:3778   */\n  dup4\n    /* \"#utility.yul\":3755:3784   */\n  tag_27\n  jump\t// in\ntag_78:\n    /* \"#utility.yul\":3747:3784   */\n  swap2\n  pop\n    /* \"#utility.yul\":3817:3820   */\n  dup3\n    /* \"#utility.yul\":3814:3815   */\n  0x02\n    /* \"#utility.yul\":3810:3821   */\n  mul\n    /* \"#utility.yul\":3804:3808   */\n  dup3\n    /* \"#utility.yul\":3801:3822   */\n  or\n    /* \"#utility.yul\":3793:3822   */\n  swap1\n  pop\n    /* \"#utility.yul\":3533:3828   */\n  swap3\n  swap2\n  pop\n  pop\n  jump\t// out\n    /* \"#utility.yul\":3833:5228   */\ntag_2:\n    /* \"#utility.yul\":3950:3987   */\n  tag_80\n    /* \"#utility.yul\":3983:3986   */\n  dup3\n    /* \"#utility.yul\":3950:3987   */\n  tag_9\n  jump\t// in\ntag_80:\n    /* \"#utility.yul\":4052:4070   */\n  0xffffffffffffffff\n    /* \"#utility.yul\":4044:4050   */\n  dup2\n    /* \"#utility.yul\":4041:4071   */\n  gt\n    /* \"#utility.yul\":4038:4094   */\n  iszero\n  tag_81\n  jumpi\n    /* \"#utility.yul\":4074:4092   */\n  tag_82\n  tag_10\n  jump\t// in\ntag_82:\n    /* \"#utility.yul\":4038:4094   */\ntag_81:\n    /* \"#utility.yul\":4118:4156   */\n  tag_83\n    /* \"#utility.yul\":4150:4154   */\n  dup3\n    /* \"#utility.yul\":4144:4155   */\n  sload\n    /* \"#utility.yul\":4118:4156   */\n  tag_12\n  jump\t// in\ntag_83:\n    /* \"#utility.yul\":4203:4270   */\n  tag_84\n    /* \"#utility.yul\":4263:4269   */\n  dup3\n    /* \"#utility.yul\":4255:4261   */\n  dup3\n    /* \"#utility.yul\":4249:4253   */\n  dup6\n    /* \"#utility.yul\":4203:4270   */\n  tag_25\n  jump\t// in\ntag_84:\n    /* \"#utility.yul\":4297:4298   */\n  0x00\n    /* \"#utility.yul\":4321:4325   */\n  0x20\n    /* \"#utility.yul\":4308:4325   */\n  swap1\n  pop\n    /* \"#utility.yul\":4353:4355   */\n  0x1f\n    /* \"#utility.yul\":4345:4351   */\n  dup4\n    /* \"#utility.yul\":4342:4356   */\n  gt\n    /* \"#utility.yul\":4370:4371   */\n  0x01\n    /* \"#utility.yul\":4365:4983   */\n  dup2\n  eq\n  tag_86\n  jumpi\n    /* \"#utility.yul\":5027:5028   */\n  0x00\n    /* \"#utility.yul\":5044:5050   */\n  dup5\n    /* \"#utility.yul\":5041:5118   */\n  iszero\n  tag_87\n  jumpi\n    /* \"#utility.yul\":5093:5102   */\n  dup3\n    /* \"#utility.yul\":5088:5091   */\n  dup8\n    /* \"#utility.yul\":5084:5103   */\n  add\n    /* \"#utility.yul\":5078:5104   */\n  mload\n    /* \"#utility.yul\":5069:5104   */\n  swap1\n  pop\n    /* \"#utility.yul\":5041:5118   */\ntag_87:\n    /* \"#utility.yul\":5144:5211   */\n  tag_88\n    /* \"#utility.yul\":5204:5210   */\n  dup6\n    /* \"#utility.yul\":5197:5202   */\n  dup3\n    /* \"#utility.yul\":5144:5211   */\n  tag_28\n  jump\t// in\ntag_88:\n    /* \"#utility.yul\":5138:5142   */\n  dup7\n    /* \"#utility.yul\":5131:5212   */\n  sstore\n    /* \"#utility.yul\":5000:5222   */\n  pop\n    /* \"#utility.yul\":4335:5222   */\n  jump(tag_85)\n    /* \"#utility.yul\":4365:4983   */\ntag_86:\n    /* \"#utility.yul\":4417:4421   */\n  0x1f\n    /* \"#utility.yul\":4413:4422   */\n  not\n    /* \"#utility.yul\":4405:4411   */\n  dup5\n    /* \"#utility.yul\":4401:4423   */\n  and\n    /* \"#utility.yul\":4451:4488   */\n  tag_89\n    /* \"#utility.yul\":4483:4487   */\n  dup7\n    /* \"#utility.yul\":4451:4488   */\n  tag_13\n  jump\t// in\ntag_89:\n    /* \"#utility.yul\":4510:4511   */\n  0x00\n    /* \"#utility.yul\":4524:4732   */\ntag_90:\n    /* \"#utility.yul\":4538:4545   */\n  dup3\n    /* \"#utility.yul\":4535:4536   */\n  dup2\n    /* \"#utility.yul\":4532:4546   */\n  lt\n    /* \"#utility.yul\":4524:4732   */\n  iszero\n  tag_92\n  jumpi\n    /* \"#utility.yul\":4617:4626   */\n  dup5\n    /* \"#utility.yul\":4612:4615   */\n  dup10\n    /* \"#utility.yul\":4608:4627   */\n  add\n    /* \"#utility.yul\":4602:4628   */\n  mload\n    /* \"#utility.yul\":4594:4600   */\n  dup3\n    /* \"#utility.yul\":4587:4629   */\n  sstore\n    /* \"#utility.yul\":4668:4669   */\n  0x01\n    /* \"#utility.yul\":4660:4666   */\n  dup3\n    /* \"#utility.yul\":4656:4670   */\n  add\n    /* \"#utility.yul\":4646:4670   */\n  swap2\n  pop\n    /* \"#utility.yul\":4715:4717   */\n  0x20\n    /* \"#utility.yul\":4704:4713   */\n  dup6\n    /* \"#utility.yul\":4700:4718   */\n  add\n    /* \"#utility.yul\":4687:4718   */\n  swap5\n  pop\n    /* \"#utility.yul\":4561:4565   */\n  0x20\n    /* \"#utility.yul\":4558:4559   */\n  dup2\n    /* \"#utility.yul\":4554:4566   */\n  add\n    /* \"#utility.yul\":4549:4566   */\n  swap1\n  pop\n    /* \"#utility.yul\":4524:4732   */\n  jump(tag_90)\ntag_92:\n    /* \"#utility.yul\":4760:4766   */\n  dup7\n    /* \"#utility.yul\":4751:4758   */\n  dup4\n    /* \"#utility.yul\":4748:4767   */\n  lt\n    /* \"#utility.yul\":4745:4924   */\n  iszero\n  tag_93\n  jumpi\n    /* \"#utility.yul\":4818:4827   */\n  dup5\n    /* \"#utility.yul\":4813:4816   */\n  dup10\n    /* \"#utility.yul\":4809:4828   */\n  add\n    /* \"#utility.yul\":4803:4829   */\n  mload\n    /* \"#utility.yul\":4861:4909   */\n  tag_94\n    /* \"#utility.yul\":4903:4907   */\n  0x1f\n    /* \"#utility.yul\":4895:4901   */\n  dup10\n    /* \"#utility.yul\":4891:4908   */\n  and\n    /* \"#utility.yul\":4880:4889   */\n  dup3\n    /* \"#utility.yul\":4861:4909   */\n  tag_27\n  jump\t// in\ntag_94:\n    /* \"#utility.yul\":4853:4859   */\n  dup4\n    /* \"#utility.yul\":4846:4910   */\n  sstore\n    /* \"#utility.yul\":4768:4924   */\n  pop\n    /* \"#utility.yul\":4745:4924   */\ntag_93:\n    /* \"#utility.yul\":4970:4971   */\n  0x01\n    /* \"#utility.yul\":4966:4967   */\n  0x02\n    /* \"#utility.yul\":4958:4964   */\n  dup9\n    /* \"#utility.yul\":4954:4968   */\n  mul\n    /* \"#utility.yul\":4950:4972   */\n  add\n    /* \"#utility.yul\":4944:4948   */\n  dup9\n    /* \"#utility.yul\":4937:4973   */\n  sstore\n    /* \"#utility.yul\":4372:4983   */\n  pop\n  pop\n  pop\n    /* \"#utility.yul\":4335:5222   */\ntag_85:\n  pop\n    /* \"#utility.yul\":3925:5228   */\n  pop\n  pop\n  pop\n    /* \"#utility.yul\":3833:5228   */\n  pop\n  pop\n  jump\t// out\n    /* \"#utility.yul\":5234:5374   */\ntag_29:\n    /* \"#utility.yul\":5282:5286   */\n  0x00\n    /* \"#utility.yul\":5305:5308   */\n  dup2\n    /* \"#utility.yul\":5297:5308   */\n  swap1\n  pop\n    /* \"#utility.yul\":5328:5331   */\n  dup2\n    /* \"#utility.yul\":5325:5326   */\n  0x00\n    /* \"#utility.yul\":5318:5332   */\n  mstore\n    /* \"#utility.yul\":5362:5366   */\n  0x20\n    /* \"#utility.yul\":5359:5360   */\n  0x00\n    /* \"#utility.yul\":5349:5367   */\n  keccak256\n    /* \"#utility.yul\":5341:5367   */\n  swap1\n  pop\n    /* \"#utility.yul\":5234:5374   */\n  swap2\n  swap1\n  pop\n  jump\t// out\n    /* \"#utility.yul\":5380:5921   */\ntag_30:\n    /* \"#utility.yul\":5480:5482   */\n  0x1f\n    /* \"#utility.yul\":5475:5478   */\n  dup3\n    /* \"#utility.yul\":5472:5483   */\n  gt\n    /* \"#utility.yul\":5469:5914   */\n  iszero\n  tag_97\n  jumpi\n    /* \"#utility.yul\":5514:5551   */\n  tag_98\n    /* \"#utility.yul\":5545:5550   */\n  dup2\n    /* \"#utility.yul\":5514:5551   */\n  tag_29\n  jump\t// in\ntag_98:\n    /* \"#utility.yul\":5597:5626   */\n  tag_99\n    /* \"#utility.yul\":5615:5625   */\n  dup5\n    /* \"#utility.yul\":5597:5626   */\n  tag_14\n  jump\t// in\ntag_99:\n    /* \"#utility.yul\":5587:5595   */\n  dup2\n    /* \"#utility.yul\":5583:5627   */\n  add\n    /* \"#utility.yul\":5780:5782   */\n  0x20\n    /* \"#utility.yul\":5768:5778   */\n  dup6\n    /* \"#utility.yul\":5765:5783   */\n  lt\n    /* \"#utility.yul\":5762:5811   */\n  iszero\n  tag_100\n  jumpi\n    /* \"#utility.yul\":5801:5809   */\n  dup2\n    /* \"#utility.yul\":5786:5809   */\n  swap1\n  pop\n    /* \"#utility.yul\":5762:5811   */\ntag_100:\n    /* \"#utility.yul\":5824:5904   */\n  tag_101\n    /* \"#utility.yul\":5880:5902   */\n  tag_102\n    /* \"#utility.yul\":5898:5901   */\n  dup6\n    /* \"#utility.yul\":5880:5902   */\n  tag_14\n  jump\t// in\ntag_102:\n    /* \"#utility.yul\":5870:5878   */\n  dup4\n    /* \"#utility.yul\":5866:5903   */\n  add\n    /* \"#utility.yul\":5853:5864   */\n  dup3\n    /* \"#utility.yul\":5824:5904   */\n  tag_24\n  jump\t// in\ntag_101:\n    /* \"#utility.yul\":5484:5914   */\n  pop\n  pop\n    /* \"#utility.yul\":5469:5914   */\ntag_97:\n    /* \"#utility.yul\":5380:5921   */\n  pop\n  pop\n  pop\n  jump\t// out\n    /* \"#utility.yul\":5927:7319   */\ntag_4:\n    /* \"#utility.yul\":6043:6080   */\n  tag_104\n    /* \"#utility.yul\":6076:6079   */\n  dup3\n    /* \"#utility.yul\":6043:6080   */\n  tag_9\n  jump\t// in\ntag_104:\n    /* \"#utility.yul\":6145:6163   */\n  0xffffffffffffffff\n    /* \"#utility.yul\":6137:6143   */\n  dup2\n    /* \"#utility.yul\":6134:6164   */\n  gt\n    /* \"#utility.yul\":6131:6187   */\n  iszero\n  tag_105\n  jumpi\n    /* \"#utility.yul\":6167:6185   */\n  tag_106\n  tag_10\n  jump\t// in\ntag_106:\n    /* \"#utility.yul\":6131:6187   */\ntag_105:\n    /* \"#utility.yul\":6211:6249   */\n  tag_107\n    /* \"#utility.yul\":6243:6247   */\n  dup3\n    /* \"#utility.yul\":6237:6248   */\n  sload\n    /* \"#utility.yul\":6211:6249   */\n  tag_12\n  jump\t// in\ntag_107:\n    /* \"#utility.yul\":6296:6362   */\n  tag_108\n    /* \"#utility.yul\":6355:6361   */\n  dup3\n    /* \"#utility.yul\":6347:6353   */\n  dup3\n    /* \"#utility.yul\":6341:6345   */\n  dup6\n    /* \"#utility.yul\":6296:6362   */\n  tag_30\n  jump\t// in\ntag_108:\n    /* \"#utility.yul\":6389:6390   */\n  0x00\n    /* \"#utility.yul\":6413:6417   */\n  0x20\n    /* \"#utility.yul\":6400:6417   */\n  swap1\n  pop\n    /* \"#utility.yul\":6445:6447   */\n  0x1f\n    /* \"#utility.yul\":6437:6443   */\n  dup4\n    /* \"#utility.yul\":6434:6448   */\n  gt\n    /* \"#utility.yul\":6462:6463   */\n  0x01\n    /* \"#utility.yul\":6457:7074   */\n  dup2\n  eq\n  tag_110\n  jumpi\n    /* \"#utility.yul\":7118:7119   */\n  0x00\n    /* \"#utility.yul\":7135:7141   */\n  dup5\n    /* \"#utility.yul\":7132:7209   */\n  iszero\n  tag_111\n  jumpi\n    /* \"#utility.yul\":7184:7193   */\n  dup3\n    /* \"#utility.yul\":7179:7182   */\n  dup8\n    /* \"#utility.yul\":7175:7194   */\n  add\n    /* \"#utility.yul\":7169:7195   */\n  mload\n    /* \"#utility.yul\":7160:7195   */\n  swap1\n  pop\n    /* \"#utility.yul\":7132:7209   */\ntag_111:\n    /* \"#utility.yul\":7235:7302   */\n  tag_112\n    /* \"#utility.yul\":7295:7301   */\n  dup6\n    /* \"#utility.yul\":7288:7293   */\n  dup3\n    /* \"#utility.yul\":7235:7302   */\n  tag_28\n  jump\t// in\ntag_112:\n    /* \"#utility.yul\":7229:7233   */\n  dup7\n    /* \"#utility.yul\":7222:7303   */\n  sstore\n    /* \"#utility.yul\":7091:7313   */\n  pop\n    /* \"#utility.yul\":6427:7313   */\n  jump(tag_109)\n    /* \"#utility.yul\":6457:7074   */\ntag_110:\n    /* \"#utility.yul\":6509:6513   */\n  0x1f\n    /* \"#utility.yul\":6505:6514   */\n  not\n    /* \"#utility.yul\":6497:6503   */\n  dup5\n    /* \"#utility.yul\":6493:6515   */\n  and\n    /* \"#utility.yul\":6543:6579   */\n  tag_113\n    /* \"#utility.yul\":6574:6578   */\n  dup7\n    /* \"#utility.yul\":6543:6579   */\n  tag_29\n  jump\t// in\ntag_113:\n    /* \"#utility.yul\":6601:6602   */\n  0x00\n    /* \"#utility.yul\":6615:6823   */\ntag_114:\n    /* \"#utility.yul\":6629:6636   */\n  dup3\n    /* \"#utility.yul\":6626:6627   */\n  dup2\n    /* \"#utility.yul\":6623:6637   */\n  lt\n    /* \"#utility.yul\":6615:6823   */\n  iszero\n  tag_116\n  jumpi\n    /* \"#utility.yul\":6708:6717   */\n  dup5\n    /* \"#utility.yul\":6703:6706   */\n  dup10\n    /* \"#utility.yul\":6699:6718   */\n  add\n    /* \"#utility.yul\":6693:6719   */\n  mload\n    /* \"#utility.yul\":6685:6691   */\n  dup3\n    /* \"#utility.yul\":6678:6720   */\n  sstore\n    /* \"#utility.yul\":6759:6760   */\n  0x01\n    /* \"#utility.yul\":6751:6757   */\n  dup3\n    /* \"#utility.yul\":6747:6761   */\n  add\n    /* \"#utility.yul\":6737:6761   */\n  swap2\n  pop\n    /* \"#utility.yul\":6806:6808   */\n  0x20\n    /* \"#utility.yul\":6795:6804   */\n  dup6\n    /* \"#utility.yul\":6791:6809   */\n  add\n    /* \"#utility.yul\":6778:6809   */\n  swap5\n  pop\n    /* \"#utility.yul\":6652:6656   */\n  0x20\n    /* \"#utility.yul\":6649:6650   */\n  dup2\n    /* \"#utility.yul\":6645:6657   */\n  add\n    /* \"#utility.yul\":6640:6657   */\n  swap1\n  pop\n    /* \"#utility.yul\":6615:6823   */\n  jump(tag_114)\ntag_116:\n    /* \"#utility.yul\":6851:6857   */\n  dup7\n    /* \"#utility.yul\":6842:6849   */\n  dup4\n    /* \"#utility.yul\":6839:6858   */\n  lt\n    /* \"#utility.yul\":6836:7015   */\n  iszero\n  tag_117\n  jumpi\n    /* \"#utility.yul\":6909:6918   */\n  dup5\n    /* \"#utility.yul\":6904:6907   */\n  dup10\n    /* \"#utility.yul\":6900:6919   */\n  add\n    /* \"#utility.yul\":6894:6920   */\n  mload\n    /* \"#utility.yul\":6952:7000   */\n  tag_118\n    /* \"#utility.yul\":6994:6998   */\n  0x1f\n    /* \"#utility.yul\":6986:6992   */\n  dup10\n    /* \"#utility.yul\":6982:6999   */\n  and\n    /* \"#utility.yul\":6971:6980   */\n  dup3\n    /* \"#utility.yul\":6952:7000   */\n  tag_27\n  jump\t// in\ntag_118:\n    /* \"#utility.yul\":6944:6950   */\n  dup4\n    /* \"#utility.yul\":6937:7001   */\n  sstore\n    /* \"#utility.yul\":6859:7015   */\n  pop\n    /* \"#utility.yul\":6836:7015   */\ntag_117:\n    /* \"#utility.yul\":7061:7062   */\n  0x01\n    /* \"#utility.yul\":7057:7058   */\n  0x02\n    /* \"#utility.yul\":7049:7055   */\n  dup9\n    /* \"#utility.yul\":7045:7059   */\n  mul\n    /* \"#utility.yul\":7041:7063   */\n  add\n    /* \"#utility.yul\":7035:7039   */\n  dup9\n    /* \"#utility.yul\":7028:7064   */\n  sstore\n    /* \"#utility.yul\":6464:7074   */\n  pop\n  pop\n  pop\n    /* \"#utility.yul\":6427:7313   */\ntag_109:\n  pop\n    /* \"#utility.yul\":6018:7319   */\n  pop\n  pop\n  pop\n    /* \"#utility.yul\":5927:7319   */\n  pop\n  pop\n  jump\t// out\n    /* \"#utility.yul\":7325:7478   */\ntag_31:\n    /* \"#utility.yul\":7378:7384   */\n  0x00\n    /* \"#utility.yul\":7412:7417   */\n  dup2\n    /* \"#utility.yul\":7406:7418   */\n  sload\n    /* \"#utility.yul\":7396:7418   */\n  swap1\n  pop\n    /* \"#utility.yul\":7438:7471   */\n  tag_120\n    /* \"#utility.yul\":7464:7470   */\n  dup2\n    /* \"#utility.yul\":7438:7471   */\n  tag_12\n  jump\t// in\ntag_120:\n    /* \"#utility.yul\":7428:7471   */\n  swap1\n  pop\n    /* \"#utility.yul\":7325:7478   */\n  swap2\n  swap1\n  pop\n  jump\t// out\n    /* \"#utility.yul\":7484:7629   */\ntag_32:\n    /* \"#utility.yul\":7537:7541   */\n  0x00\n    /* \"#utility.yul\":7560:7563   */\n  dup2\n    /* \"#utility.yul\":7552:7563   */\n  swap1\n  pop\n    /* \"#utility.yul\":7583:7586   */\n  dup2\n    /* \"#utility.yul\":7580:7581   */\n  0x00\n    /* \"#utility.yul\":7573:7587   */\n  mstore\n    /* \"#utility.yul\":7617:7621   */\n  0x20\n    /* \"#utility.yul\":7614:7615   */\n  0x00\n    /* \"#utility.yul\":7604:7622   */\n  keccak256\n    /* \"#utility.yul\":7596:7622   */\n  swap1\n  pop\n    /* \"#utility.yul\":7484:7629   */\n  swap2\n  swap1\n  pop\n  jump\t// out\n    /* \"#utility.yul\":7635:9098   */\ntag_6:\n    /* \"#utility.yul\":7750:7753   */\n  dup2\n    /* \"#utility.yul\":7744:7748   */\n  dup2\n    /* \"#utility.yul\":7741:7754   */\n  sub\n    /* \"#utility.yul\":7738:7764   */\n  tag_123\n  jumpi\n    /* \"#utility.yul\":7757:7762   */\n  pop\n  pop\n  jump(tag_122)\n    /* \"#utility.yul\":7738:7764   */\ntag_123:\n    /* \"#utility.yul\":7788:7826   */\n  tag_124\n    /* \"#utility.yul\":7822:7825   */\n  dup3\n    /* \"#utility.yul\":7788:7826   */\n  tag_31\n  jump\t// in\ntag_124:\n    /* \"#utility.yul\":7891:7909   */\n  0xffffffffffffffff\n    /* \"#utility.yul\":7883:7889   */\n  dup2\n    /* \"#utility.yul\":7880:7910   */\n  gt\n    /* \"#utility.yul\":7877:7933   */\n  iszero\n  tag_125\n  jumpi\n    /* \"#utility.yul\":7913:7931   */\n  tag_126\n  tag_10\n  jump\t// in\ntag_126:\n    /* \"#utility.yul\":7877:7933   */\ntag_125:\n    /* \"#utility.yul\":7957:7995   */\n  tag_127\n    /* \"#utility.yul\":7989:7993   */\n  dup3\n    /* \"#utility.yul\":7983:7994   */\n  sload\n    /* \"#utility.yul\":7957:7995   */\n  tag_12\n  jump\t// in\ntag_127:\n    /* \"#utility.yul\":8042:8109   */\n  tag_128\n    /* \"#utility.yul\":8102:8108   */\n  dup3\n    /* \"#utility.yul\":8094:8100   */\n  dup3\n    /* \"#utility.yul\":8088:8092   */\n  dup6\n    /* \"#utility.yul\":8042:8109   */\n  tag_25\n  jump\t// in\ntag_128:\n    /* \"#utility.yul\":8136:8137   */\n  0x00\n    /* \"#utility.yul\":8165:8167   */\n  0x1f\n    /* \"#utility.yul\":8157:8163   */\n  dup4\n    /* \"#utility.yul\":8154:8168   */\n  gt\n    /* \"#utility.yul\":8182:8183   */\n  0x01\n    /* \"#utility.yul\":8177:8853   */\n  dup2\n  eq\n  tag_130\n  jumpi\n    /* \"#utility.yul\":8897:8898   */\n  0x00\n    /* \"#utility.yul\":8914:8920   */\n  dup5\n    /* \"#utility.yul\":8911:8988   */\n  iszero\n  tag_131\n  jumpi\n    /* \"#utility.yul\":8963:8972   */\n  dup3\n    /* \"#utility.yul\":8958:8961   */\n  dup8\n    /* \"#utility.yul\":8954:8973   */\n  add\n    /* \"#utility.yul\":8948:8974   */\n  sload\n    /* \"#utility.yul\":8939:8974   */\n  swap1\n  pop\n    /* \"#utility.yul\":8911:8988   */\ntag_131:\n    /* \"#utility.yul\":9014:9081   */\n  tag_132\n    /* \"#utility.yul\":9074:9080   */\n  dup6\n    /* \"#utility.yul\":9067:9072   */\n  dup3\n    /* \"#utility.yul\":9014:9081   */\n  tag_28\n  jump\t// in\ntag_132:\n    /* \"#utility.yul\":9008:9012   */\n  dup7\n    /* \"#utility.yul\":9001:9082   */\n  sstore\n    /* \"#utility.yul\":8870:9092   */\n  pop\n    /* \"#utility.yul\":8147:9092   */\n  jump(tag_129)\n    /* \"#utility.yul\":8177:8853   */\ntag_130:\n    /* \"#utility.yul\":8229:8233   */\n  0x1f\n    /* \"#utility.yul\":8225:8234   */\n  not\n    /* \"#utility.yul\":8217:8223   */\n  dup5\n    /* \"#utility.yul\":8213:8235   */\n  and\n    /* \"#utility.yul\":8255:8295   */\n  tag_133\n    /* \"#utility.yul\":8291:8294   */\n  dup8\n    /* \"#utility.yul\":8255:8295   */\n  tag_32\n  jump\t// in\ntag_133:\n    /* \"#utility.yul\":8248:8295   */\n  swap7\n  pop\n    /* \"#utility.yul\":8322:8359   */\n  tag_134\n    /* \"#utility.yul\":8354:8358   */\n  dup7\n    /* \"#utility.yul\":8322:8359   */\n  tag_13\n  jump\t// in\ntag_134:\n    /* \"#utility.yul\":8381:8382   */\n  0x00\n    /* \"#utility.yul\":8395:8602   */\ntag_135:\n    /* \"#utility.yul\":8409:8416   */\n  dup3\n    /* \"#utility.yul\":8406:8407   */\n  dup2\n    /* \"#utility.yul\":8403:8417   */\n  lt\n    /* \"#utility.yul\":8395:8602   */\n  iszero\n  tag_137\n  jumpi\n    /* \"#utility.yul\":8488:8497   */\n  dup5\n    /* \"#utility.yul\":8483:8486   */\n  dup10\n    /* \"#utility.yul\":8479:8498   */\n  add\n    /* \"#utility.yul\":8473:8499   */\n  sload\n    /* \"#utility.yul\":8465:8471   */\n  dup3\n    /* \"#utility.yul\":8458:8500   */\n  sstore\n    /* \"#utility.yul\":8539:8540   */\n  0x01\n    /* \"#utility.yul\":8531:8537   */\n  dup3\n    /* \"#utility.yul\":8527:8541   */\n  add\n    /* \"#utility.yul\":8517:8541   */\n  swap2\n  pop\n    /* \"#utility.yul\":8586:8587   */\n  0x01\n    /* \"#utility.yul\":8575:8584   */\n  dup6\n    /* \"#utility.yul\":8571:8588   */\n  add\n    /* \"#utility.yul\":8558:8588   */\n  swap5\n  pop\n    /* \"#utility.yul\":8432:8436   */\n  0x20\n    /* \"#utility.yul\":8429:8430   */\n  dup2\n    /* \"#utility.yul\":8425:8437   */\n  add\n    /* \"#utility.yul\":8420:8437   */\n  swap1\n  pop\n    /* \"#utility.yul\":8395:8602   */\n  jump(tag_135)\ntag_137:\n    /* \"#utility.yul\":8630:8636   */\n  dup7\n    /* \"#utility.yul\":8621:8628   */\n  dup4\n    /* \"#utility.yul\":8618:8637   */\n  lt\n    /* \"#utility.yul\":8615:8794   */\n  iszero\n  tag_138\n  jumpi\n    /* \"#utility.yul\":8688:8697   */\n  dup5\n    /* \"#utility.yul\":8683:8686   */\n  dup10\n    /* \"#utility.yul\":8679:8698   */\n  add\n    /* \"#utility.yul\":8673:8699   */\n  sload\n    /* \"#utility.yul\":8731:8779   */\n  tag_139\n    /* \"#utility.yul\":8773:8777   */\n  0x1f\n    /* \"#utility.yul\":8765:8771   */\n  dup10\n    /* \"#utility.yul\":8761:8778   */\n  and\n    /* \"#utility.yul\":8750:8759   */\n  dup3\n    /* \"#utility.yul\":8731:8779   */\n  tag_27\n  jump\t// in\ntag_139:\n    /* \"#utility.yul\":8723:8729   */\n  dup4\n    /* \"#utility.yul\":8716:8780   */\n  sstore\n    /* \"#utility.yul\":8638:8794   */\n  pop\n    /* \"#utility.yul\":8615:8794   */\ntag_138:\n    /* \"#utility.yul\":8840:8841   */\n  0x01\n    /* \"#utility.yul\":8836:8837   */\n  0x02\n    /* \"#utility.yul\":8828:8834   */\n  dup9\n    /* \"#utility.yul\":8824:8838   */\n  mul\n    /* \"#utility.yul\":8820:8842   */\n  add\n    /* \"#utility.yul\":8814:8818   */\n  dup9\n    /* \"#utility.yul\":8807:8843   */\n  sstore\n    /* \"#utility.yul\":8184:8853   */\n  pop\n  pop\n  pop\n    /* \"#utility.yul\":8147:9092   */\ntag_129:\n  pop\n    /* \"#utility.yul\":7728:9098   */\n  pop\n  pop\n  pop\n    /* \"#utility.yul\":7635:9098   */\n  pop\n  pop\ntag_122:\n  jump\t// out\n    /* \"contracts/StringAndBytes.sol\":60:258  contract StringAndBytes{... */\ntag_8:\n  dataSize(sub_0)\n  dup1\n  dataOffset(sub_0)\n  0x00\n  codecopy\n  0x00\n  return\nstop\ndata_02f97aa16026639b787b3fe2253a66af3772c2cb2ee1d20e35763247efa14720 4d6572686162612064756e79612062656e20736f6c69646974792079617a69796f72756d21\n\nsub_0: assembly {\n        /* \"contracts/StringAndBytes.sol\":60:258  contract StringAndBytes{... */\n      mstore(0x40, 0x80)\n      callvalue\n      dup1\n      iszero\n      tag_1\n      jumpi\n      0x00\n      dup1\n      revert\n    tag_1:\n      pop\n      jumpi(tag_2, lt(calldatasize, 0x04))\n      shr(0xe0, calldataload(0x00))\n      dup1\n      0x3ec1ac8b\n      eq\n      tag_3\n      jumpi\n      dup1\n      0x7e7d629b\n      eq\n      tag_4\n      jumpi\n      dup1\n      0xd9b0f4ac\n      eq\n      tag_5\n      jumpi\n    tag_2:\n      0x00\n      dup1\n      revert\n        /* \"contracts/StringAndBytes.sol\":90:129  string public metin= \"Bu bir metindir.\" */\n    tag_3:\n      tag_6\n      tag_7\n      jump\t// in\n    tag_6:\n      mload(0x40)\n      tag_8\n      swap2\n      swap1\n      tag_9\n      jump\t// in\n    tag_8:\n      mload(0x40)\n      dup1\n      swap2\n      sub\n      swap1\n      return\n        /* \"contracts/StringAndBytes.sol\":138:201  bytes public  merhaba = \"Merhaba dunya ben solidity yaziyorum!\" */\n    tag_4:\n      tag_10\n      tag_11\n      jump\t// in\n    tag_10:\n      mload(0x40)\n      tag_12\n      swap2\n      swap1\n      tag_13\n      jump\t// in\n    tag_12:\n      mload(0x40)\n      dup1\n      swap2\n      sub\n      swap1\n      return\n        /* \"contracts/StringAndBytes.sol\":210:254  string public convertedText= string(merhaba) */\n    tag_5:\n      tag_14\n      tag_15\n      jump\t// in\n    tag_14:\n      mload(0x40)\n      tag_16\n      swap2\n      swap1\n      tag_9\n      jump\t// in\n    tag_16:\n      mload(0x40)\n      dup1\n      swap2\n      sub\n      swap1\n      return\n        /* \"contracts/StringAndBytes.sol\":90:129  string public metin= \"Bu bir metindir.\" */\n    tag_7:\n      0x00\n      dup1\n      sload\n      tag_17\n      swap1\n      tag_18\n      jump\t// in\n    tag_17:\n      dup1\n      0x1f\n      add\n      0x20\n      dup1\n      swap2\n      div\n      mul\n      0x20\n      add\n      mload(0x40)\n      swap1\n      dup2\n      add\n      0x40\n      mstore\n      dup1\n      swap3\n      swap2\n      swap1\n      dup2\n      dup2\n      mstore\n      0x20\n      add\n      dup3\n      dup1\n      sload\n      tag_19\n      swap1\n      tag_18\n      jump\t// in\n    tag_19:\n      dup1\n      iszero\n      tag_20\n      jumpi\n      dup1\n      0x1f\n      lt\n      tag_21\n      jumpi\n      0x0100\n      dup1\n      dup4\n      sload\n      div\n      mul\n      dup4\n      mstore\n      swap2\n      0x20\n      add\n      swap2\n      jump(tag_20)\n    tag_21:\n      dup3\n      add\n      swap2\n      swap1\n      0x00\n      mstore\n      keccak256(0x00, 0x20)\n      swap1\n    tag_22:\n      dup2\n      sload\n      dup2\n      mstore\n      swap1\n      0x01\n      add\n      swap1\n      0x20\n      add\n      dup1\n      dup4\n      gt\n      tag_22\n      jumpi\n      dup3\n      swap1\n      sub\n      0x1f\n      and\n      dup3\n      add\n      swap2\n    tag_20:\n      pop\n      pop\n      pop\n      pop\n      pop\n      dup2\n      jump\t// out\n        /* \"contracts/StringAndBytes.sol\":138:201  bytes public  merhaba = \"Merhaba dunya ben solidity yaziyorum!\" */\n    tag_11:\n      0x01\n      dup1\n      sload\n      tag_23\n      swap1\n      tag_18\n      jump\t// in\n    tag_23:\n      dup1\n      0x1f\n      add\n      0x20\n      dup1\n      swap2\n      div\n      mul\n      0x20\n      add\n      mload(0x40)\n      swap1\n      dup2\n      add\n      0x40\n      mstore\n      dup1\n      swap3\n      swap2\n      swap1\n      dup2\n      dup2\n      mstore\n      0x20\n      add\n      dup3\n      dup1\n      sload\n      tag_24\n      swap1\n      tag_18\n      jump\t// in\n    tag_24:\n      dup1\n      iszero\n      tag_25\n      jumpi\n      dup1\n      0x1f\n      lt\n      tag_26\n      jumpi\n      0x0100\n      dup1\n      dup4\n      sload\n      div\n      mul\n      dup4\n      mstore\n      swap2\n      0x20\n      add\n      swap2\n      jump(tag_25)\n    tag_26:\n      dup3\n      add\n      swap2\n      swap1\n      0x00\n      mstore\n      keccak256(0x00, 0x20)\n      swap1\n    tag_27:\n      dup2\n      sload\n      dup2\n      mstore\n      swap1\n      0x01\n      add\n      swap1\n      0x20\n      add\n      dup1\n      dup4\n      gt\n      tag_27\n      jumpi\n      dup3\n      swap1\n      sub\n      0x1f\n      and\n      dup3\n      add\n      swap2\n    tag_25:\n      pop\n      pop\n      pop\n      pop\n      pop\n      dup2\n      jump\t// out\n        /* \"contracts/StringAndBytes.sol\":210:254  string public convertedText= string(merhaba) */\n    tag_15:\n      0x02\n      dup1\n      sload\n      tag_28\n      swap1\n      tag_18\n      jump\t// in\n    tag_28:\n      dup1\n      0x1f\n      add\n      0x20\n      dup1\n      swap2\n      div\n      mul\n      0x20\n      add\n      mload(0x40)\n      swap1\n      dup2\n      add\n      0x40\n      mstore\n      dup1\n      swap3\n      swap2\n      swap1\n      dup2\n      dup2\n      mstore\n      0x20\n      add\n      dup3\n      dup1\n      sload\n      tag_29\n      swap1\n      tag_18\n      jump\t// in\n    tag_29:\n      dup1\n      iszero\n      tag_30\n      jumpi\n      dup1\n      0x1f\n      lt\n      tag_31\n      jumpi\n      0x0100\n      dup1\n      dup4\n      sload\n      div\n      mul\n      dup4\n      mstore\n      swap2\n      0x20\n      add\n      swap2\n      jump(tag_30)\n    tag_31:\n      dup3\n      add\n      swap2\n      swap1\n      0x00\n      mstore\n      keccak256(0x00, 0x20)\n      swap1\n    tag_32:\n      dup2\n      sload\n      dup2\n      mstore\n      swap1\n      0x01\n      add\n      swap1\n      0x20\n      add\n      dup1\n      dup4\n      gt\n      tag_32\n      jumpi\n      dup3\n      swap1\n      sub\n      0x1f\n      and\n      dup3\n      add\n      swap2\n    tag_30:\n      pop\n      pop\n      pop\n      pop\n      pop\n      dup2\n      jump\t// out\n        /* \"#utility.yul\":7:106   */\n    tag_33:\n        /* \"#utility.yul\":59:65   */\n      0x00\n        /* \"#utility.yul\":93:98   */\n      dup2\n        /* \"#utility.yul\":87:99   */\n      mload\n        /* \"#utility.yul\":77:99   */\n      swap1\n      pop\n        /* \"#utility.yul\":7:106   */\n      swap2\n      swap1\n      pop\n      jump\t// out\n        /* \"#utility.yul\":112:281   */\n    tag_34:\n        /* \"#utility.yul\":196:207   */\n      0x00\n        /* \"#utility.yul\":230:236   */\n      dup3\n        /* \"#utility.yul\":225:228   */\n      dup3\n        /* \"#utility.yul\":218:237   */\n      mstore\n        /* \"#utility.yul\":270:274   */\n      0x20\n        /* \"#utility.yul\":265:268   */\n      dup3\n        /* \"#utility.yul\":261:275   */\n      add\n        /* \"#utility.yul\":246:275   */\n      swap1\n      pop\n        /* \"#utility.yul\":112:281   */\n      swap3\n      swap2\n      pop\n      pop\n      jump\t// out\n        /* \"#utility.yul\":287:533   */\n    tag_35:\n        /* \"#utility.yul\":368:369   */\n      0x00\n        /* \"#utility.yul\":378:491   */\n    tag_46:\n        /* \"#utility.yul\":392:398   */\n      dup4\n        /* \"#utility.yul\":389:390   */\n      dup2\n        /* \"#utility.yul\":386:399   */\n      lt\n        /* \"#utility.yul\":378:491   */\n      iszero\n      tag_48\n      jumpi\n        /* \"#utility.yul\":477:478   */\n      dup1\n        /* \"#utility.yul\":472:475   */\n      dup3\n        /* \"#utility.yul\":468:479   */\n      add\n        /* \"#utility.yul\":462:480   */\n      mload\n        /* \"#utility.yul\":458:459   */\n      dup2\n        /* \"#utility.yul\":453:456   */\n      dup5\n        /* \"#utility.yul\":449:460   */\n      add\n        /* \"#utility.yul\":442:481   */\n      mstore\n        /* \"#utility.yul\":414:416   */\n      0x20\n        /* \"#utility.yul\":411:412   */\n      dup2\n        /* \"#utility.yul\":407:417   */\n      add\n        /* \"#utility.yul\":402:417   */\n      swap1\n      pop\n        /* \"#utility.yul\":378:491   */\n      jump(tag_46)\n    tag_48:\n        /* \"#utility.yul\":525:526   */\n      0x00\n        /* \"#utility.yul\":516:522   */\n      dup5\n        /* \"#utility.yul\":511:514   */\n      dup5\n        /* \"#utility.yul\":507:523   */\n      add\n        /* \"#utility.yul\":500:527   */\n      mstore\n        /* \"#utility.yul\":349:533   */\n      pop\n        /* \"#utility.yul\":287:533   */\n      pop\n      pop\n      pop\n      jump\t// out\n        /* \"#utility.yul\":539:641   */\n    tag_36:\n        /* \"#utility.yul\":580:586   */\n      0x00\n        /* \"#utility.yul\":631:633   */\n      0x1f\n        /* \"#utility.yul\":627:634   */\n      not\n        /* \"#utility.yul\":622:624   */\n      0x1f\n        /* \"#utility.yul\":615:620   */\n      dup4\n        /* \"#utility.yul\":611:625   */\n      add\n        /* \"#utility.yul\":607:635   */\n      and\n        /* \"#utility.yul\":597:635   */\n      swap1\n      pop\n        /* \"#utility.yul\":539:641   */\n      swap2\n      swap1\n      pop\n      jump\t// out\n        /* \"#utility.yul\":647:1024   */\n    tag_37:\n        /* \"#utility.yul\":735:738   */\n      0x00\n        /* \"#utility.yul\":763:802   */\n      tag_51\n        /* \"#utility.yul\":796:801   */\n      dup3\n        /* \"#utility.yul\":763:802   */\n      tag_33\n      jump\t// in\n    tag_51:\n        /* \"#utility.yul\":818:889   */\n      tag_52\n        /* \"#utility.yul\":882:888   */\n      dup2\n        /* \"#utility.yul\":877:880   */\n      dup6\n        /* \"#utility.yul\":818:889   */\n      tag_34\n      jump\t// in\n    tag_52:\n        /* \"#utility.yul\":811:889   */\n      swap4\n      pop\n        /* \"#utility.yul\":898:963   */\n      tag_53\n        /* \"#utility.yul\":956:962   */\n      dup2\n        /* \"#utility.yul\":951:954   */\n      dup6\n        /* \"#utility.yul\":944:948   */\n      0x20\n        /* \"#utility.yul\":937:942   */\n      dup7\n        /* \"#utility.yul\":933:949   */\n      add\n        /* \"#utility.yul\":898:963   */\n      tag_35\n      jump\t// in\n    tag_53:\n        /* \"#utility.yul\":988:1017   */\n      tag_54\n        /* \"#utility.yul\":1010:1016   */\n      dup2\n        /* \"#utility.yul\":988:1017   */\n      tag_36\n      jump\t// in\n    tag_54:\n        /* \"#utility.yul\":983:986   */\n      dup5\n        /* \"#utility.yul\":979:1018   */\n      add\n        /* \"#utility.yul\":972:1018   */\n      swap2\n      pop\n        /* \"#utility.yul\":739:1024   */\n      pop\n        /* \"#utility.yul\":647:1024   */\n      swap3\n      swap2\n      pop\n      pop\n      jump\t// out\n        /* \"#utility.yul\":1030:1343   */\n    tag_9:\n        /* \"#utility.yul\":1143:1147   */\n      0x00\n        /* \"#utility.yul\":1181:1183   */\n      0x20\n        /* \"#utility.yul\":1170:1179   */\n      dup3\n        /* \"#utility.yul\":1166:1184   */\n      add\n        /* \"#utility.yul\":1158:1184   */\n      swap1\n      pop\n        /* \"#utility.yul\":1230:1239   */\n      dup2\n        /* \"#utility.yul\":1224:1228   */\n      dup2\n        /* \"#utility.yul\":1220:1240   */\n      sub\n        /* \"#utility.yul\":1216:1217   */\n      0x00\n        /* \"#utility.yul\":1205:1214   */\n      dup4\n        /* \"#utility.yul\":1201:1218   */\n      add\n        /* \"#utility.yul\":1194:1241   */\n      mstore\n        /* \"#utility.yul\":1258:1336   */\n      tag_56\n        /* \"#utility.yul\":1331:1335   */\n      dup2\n        /* \"#utility.yul\":1322:1328   */\n      dup5\n        /* \"#utility.yul\":1258:1336   */\n      tag_37\n      jump\t// in\n    tag_56:\n        /* \"#utility.yul\":1250:1336   */\n      swap1\n      pop\n        /* \"#utility.yul\":1030:1343   */\n      swap3\n      swap2\n      pop\n      pop\n      jump\t// out\n        /* \"#utility.yul\":1349:1447   */\n    tag_38:\n        /* \"#utility.yul\":1400:1406   */\n      0x00\n        /* \"#utility.yul\":1434:1439   */\n      dup2\n        /* \"#utility.yul\":1428:1440   */\n      mload\n        /* \"#utility.yul\":1418:1440   */\n      swap1\n      pop\n        /* \"#utility.yul\":1349:1447   */\n      swap2\n      swap1\n      pop\n      jump\t// out\n        /* \"#utility.yul\":1453:1621   */\n    tag_39:\n        /* \"#utility.yul\":1536:1547   */\n      0x00\n        /* \"#utility.yul\":1570:1576   */\n      dup3\n        /* \"#utility.yul\":1565:1568   */\n      dup3\n        /* \"#utility.yul\":1558:1577   */\n      mstore\n        /* \"#utility.yul\":1610:1614   */\n      0x20\n        /* \"#utility.yul\":1605:1608   */\n      dup3\n        /* \"#utility.yul\":1601:1615   */\n      add\n        /* \"#utility.yul\":1586:1615   */\n      swap1\n      pop\n        /* \"#utility.yul\":1453:1621   */\n      swap3\n      swap2\n      pop\n      pop\n      jump\t// out\n        /* \"#utility.yul\":1627:2000   */\n    tag_40:\n        /* \"#utility.yul\":1713:1716   */\n      0x00\n        /* \"#utility.yul\":1741:1779   */\n      tag_60\n        /* \"#utility.yul\":1773:1778   */\n      dup3\n        /* \"#utility.yul\":1741:1779   */\n      tag_38\n      jump\t// in\n    tag_60:\n        /* \"#utility.yul\":1795:1865   */\n      tag_61\n        /* \"#utility.yul\":1858:1864   */\n      dup2\n        /* \"#utility.yul\":1853:1856   */\n      dup6\n        /* \"#utility.yul\":1795:1865   */\n      tag_39\n      jump\t// in\n    tag_61:\n        /* \"#utility.yul\":1788:1865   */\n      swap4\n      pop\n        /* \"#utility.yul\":1874:1939   */\n      tag_62\n        /* \"#utility.yul\":1932:1938   */\n      dup2\n        /* \"#utility.yul\":1927:1930   */\n      dup6\n        /* \"#utility.yul\":1920:1924   */\n      0x20\n        /* \"#utility.yul\":1913:1918   */\n      dup7\n        /* \"#utility.yul\":1909:1925   */\n      add\n        /* \"#utility.yul\":1874:1939   */\n      tag_35\n      jump\t// in\n    tag_62:\n        /* \"#utility.yul\":1964:1993   */\n      tag_63\n        /* \"#utility.yul\":1986:1992   */\n      dup2\n        /* \"#utility.yul\":1964:1993   */\n      tag_36\n      jump\t// in\n    tag_63:\n        /* \"#utility.yul\":1959:1962   */\n      dup5\n        /* \"#utility.yul\":1955:1994   */\n      add\n        /* \"#utility.yul\":1948:1994   */\n      swap2\n      pop\n        /* \"#utility.yul\":1717:2000   */\n      pop\n        /* \"#utility.yul\":1627:2000   */\n      swap3\n      swap2\n      pop\n      pop\n      jump\t// out\n        /* \"#utility.yul\":2006:2315   */\n    tag_13:\n        /* \"#utility.yul\":2117:2121   */\n      0x00\n        /* \"#utility.yul\":2155:2157   */\n      0x20\n        /* \"#utility.yul\":2144:2153   */\n      dup3\n        /* \"#utility.yul\":2140:2158   */\n      add\n        /* \"#utility.yul\":2132:2158   */\n      swap1\n      pop\n        /* \"#utility.yul\":2204:2213   */\n      dup2\n        /* \"#utility.yul\":2198:2202   */\n      dup2\n        /* \"#utility.yul\":2194:2214   */\n      sub\n        /* \"#utility.yul\":2190:2191   */\n      0x00\n        /* \"#utility.yul\":2179:2188   */\n      dup4\n        /* \"#utility.yul\":2175:2192   */\n      add\n        /* \"#utility.yul\":2168:2215   */\n      mstore\n        /* \"#utility.yul\":2232:2308   */\n      tag_65\n        /* \"#utility.yul\":2303:2307   */\n      dup2\n        /* \"#utility.yul\":2294:2300   */\n      dup5\n        /* \"#utility.yul\":2232:2308   */\n      tag_40\n      jump\t// in\n    tag_65:\n        /* \"#utility.yul\":2224:2308   */\n      swap1\n      pop\n        /* \"#utility.yul\":2006:2315   */\n      swap3\n      swap2\n      pop\n      pop\n      jump\t// out\n        /* \"#utility.yul\":2321:2501   */\n    tag_41:\n        /* \"#utility.yul\":2369:2446   */\n      0x4e487b7100000000000000000000000000000000000000000000000000000000\n        /* \"#utility.yul\":2366:2367   */\n      0x00\n        /* \"#utility.yul\":2359:2447   */\n      mstore\n        /* \"#utility.yul\":2466:2470   */\n      0x22\n        /* \"#utility.yul\":2463:2464   */\n      0x04\n        /* \"#utility.yul\":2456:2471   */\n      mstore\n        /* \"#utility.yul\":2490:2494   */\n      0x24\n        /* \"#utility.yul\":2487:2488   */\n      0x00\n        /* \"#utility.yul\":2480:2495   */\n      revert\n        /* \"#utility.yul\":2507:2827   */\n    tag_18:\n        /* \"#utility.yul\":2551:2557   */\n      0x00\n        /* \"#utility.yul\":2588:2589   */\n      0x02\n        /* \"#utility.yul\":2582:2586   */\n      dup3\n        /* \"#utility.yul\":2578:2590   */\n      div\n        /* \"#utility.yul\":2568:2590   */\n      swap1\n      pop\n        /* \"#utility.yul\":2635:2636   */\n      0x01\n        /* \"#utility.yul\":2629:2633   */\n      dup3\n        /* \"#utility.yul\":2625:2637   */\n      and\n        /* \"#utility.yul\":2656:2674   */\n      dup1\n        /* \"#utility.yul\":2646:2727   */\n      tag_68\n      jumpi\n        /* \"#utility.yul\":2712:2716   */\n      0x7f\n        /* \"#utility.yul\":2704:2710   */\n      dup3\n        /* \"#utility.yul\":2700:2717   */\n      and\n        /* \"#utility.yul\":2690:2717   */\n      swap2\n      pop\n        /* \"#utility.yul\":2646:2727   */\n    tag_68:\n        /* \"#utility.yul\":2774:2776   */\n      0x20\n        /* \"#utility.yul\":2766:2772   */\n      dup3\n        /* \"#utility.yul\":2763:2777   */\n      lt\n        /* \"#utility.yul\":2743:2761   */\n      dup2\n        /* \"#utility.yul\":2740:2778   */\n      sub\n        /* \"#utility.yul\":2737:2821   */\n      tag_69\n      jumpi\n        /* \"#utility.yul\":2793:2811   */\n      tag_70\n      tag_41\n      jump\t// in\n    tag_70:\n        /* \"#utility.yul\":2737:2821   */\n    tag_69:\n        /* \"#utility.yul\":2558:2827   */\n      pop\n        /* \"#utility.yul\":2507:2827   */\n      swap2\n      swap1\n      pop\n      jump\t// out\n\n    auxdata: 0xa2646970667358221220e3be05bd5dd56c70c10e7c52987c64ea690a40d577ec6953b38d3851d7b9b67364736f6c63430008110033\n}\n",
				"bytecode": {
					"linkReferences": {},
					"object": "60806040526040518060400160405280601081526020017f427520626972206d6574696e6469722e00000000000000000000000000000000815250600090816200004a919062000317565b5060405180606001604052806025815260200162000a91602591396001908162000075919062000463565b5060016002908162000088919062000577565b503480156200009657600080fd5b5062000678565b600081519050919050565b7f4e487b7100000000000000000000000000000000000000000000000000000000600052604160045260246000fd5b7f4e487b7100000000000000000000000000000000000000000000000000000000600052602260045260246000fd5b600060028204905060018216806200011f57607f821691505b602082108103620001355762000134620000d7565b5b50919050565b60008190508160005260206000209050919050565b60006020601f8301049050919050565b600082821b905092915050565b6000600883026200019f7fffffffffffffffffffffffffffffffffffffffffffffffffffffffffffffffff8262000160565b620001ab868362000160565b95508019841693508086168417925050509392505050565b6000819050919050565b6000819050919050565b6000620001f8620001f2620001ec84620001c3565b620001cd565b620001c3565b9050919050565b6000819050919050565b6200021483620001d7565b6200022c6200022382620001ff565b8484546200016d565b825550505050565b600090565b6200024362000234565b6200025081848462000209565b505050565b5b8181101562000278576200026c60008262000239565b60018101905062000256565b5050565b601f821115620002c75762000291816200013b565b6200029c8462000150565b81016020851015620002ac578190505b620002c4620002bb8562000150565b83018262000255565b50505b505050565b600082821c905092915050565b6000620002ec60001984600802620002cc565b1980831691505092915050565b6000620003078383620002d9565b9150826002028217905092915050565b62000322826200009d565b67ffffffffffffffff8111156200033e576200033d620000a8565b5b6200034a825462000106565b620003578282856200027c565b600060209050601f8311600181146200038f57600084156200037a578287015190505b620003868582620002f9565b865550620003f6565b601f1984166200039f866200013b565b60005b82811015620003c957848901518255600182019150602085019450602081019050620003a2565b86831015620003e95784890151620003e5601f891682620002d9565b8355505b6001600288020188555050505b505050505050565b60008190508160005260206000209050919050565b601f8211156200045e576200042881620003fe565b620004338462000150565b8101602085101562000443578190505b6200045b620004528562000150565b83018262000255565b50505b505050565b6200046e826200009d565b67ffffffffffffffff8111156200048a5762000489620000a8565b5b62000496825462000106565b620004a382828562000413565b600060209050601f831160018114620004db5760008415620004c6578287015190505b620004d28582620002f9565b86555062000542565b601f198416620004eb86620003fe565b60005b828110156200051557848901518255600182019150602085019450602081019050620004ee565b8683101562000535578489015162000531601f891682620002d9565b8355505b6001600288020188555050505b505050505050565b6000815490506200055b8162000106565b9050919050565b60008190508160005260206000209050919050565b8181036200058757505062000676565b62000592826200054a565b67ffffffffffffffff811115620005ae57620005ad620000a8565b5b620005ba825462000106565b620005c78282856200027c565b6000601f831160018114620005fb5760008415620005e6578287015490505b620005f28582620002f9565b8655506200066f565b601f1984166200060b8762000562565b965062000618866200013b565b60005b8281101562000642578489015482556001820191506001850194506020810190506200061b565b868310156200066257848901546200065e601f891682620002d9565b8355505b6001600288020188555050505b5050505050505b565b61040980620006886000396000f3fe608060405234801561001057600080fd5b50600436106100415760003560e01c80633ec1ac8b146100465780637e7d629b14610064578063d9b0f4ac14610082575b600080fd5b61004e6100a0565b60405161005b91906102da565b60405180910390f35b61006c61012e565b6040516100799190610351565b60405180910390f35b61008a6101bc565b60405161009791906102da565b60405180910390f35b600080546100ad906103a2565b80601f01602080910402602001604051908101604052809291908181526020018280546100d9906103a2565b80156101265780601f106100fb57610100808354040283529160200191610126565b820191906000526020600020905b81548152906001019060200180831161010957829003601f168201915b505050505081565b6001805461013b906103a2565b80601f0160208091040260200160405190810160405280929190818152602001828054610167906103a2565b80156101b45780601f10610189576101008083540402835291602001916101b4565b820191906000526020600020905b81548152906001019060200180831161019757829003601f168201915b505050505081565b600280546101c9906103a2565b80601f01602080910402602001604051908101604052809291908181526020018280546101f5906103a2565b80156102425780601f1061021757610100808354040283529160200191610242565b820191906000526020600020905b81548152906001019060200180831161022557829003601f168201915b505050505081565b600081519050919050565b600082825260208201905092915050565b60005b83811015610284578082015181840152602081019050610269565b60008484015250505050565b6000601f19601f8301169050919050565b60006102ac8261024a565b6102b68185610255565b93506102c6818560208601610266565b6102cf81610290565b840191505092915050565b600060208201905081810360008301526102f481846102a1565b905092915050565b600081519050919050565b600082825260208201905092915050565b6000610323826102fc565b61032d8185610307565b935061033d818560208601610266565b61034681610290565b840191505092915050565b6000602082019050818103600083015261036b8184610318565b905092915050565b7f4e487b7100000000000000000000000000000000000000000000000000000000600052602260045260246000fd5b600060028204905060018216806103ba57607f821691505b6020821081036103cd576103cc610373565b5b5091905056fea2646970667358221220e3be05bd5dd56c70c10e7c52987c64ea690a40d577ec6953b38d3851d7b9b67364736f6c634300081100334d6572686162612064756e79612062656e20736f6c69646974792079617a69796f72756d21",
					"opcodes": "PUSH1 0x80 PUSH1 0x40 MSTORE PUSH1 0x40 MLOAD DUP1 PUSH1 0x40 ADD PUSH1 0x40 MSTORE DUP1 PUSH1 0x10 DUP2 MSTORE PUSH1 0x20 ADD PUSH32 0x427520626972206D6574696E6469722E00000000000000000000000000000000 DUP2 MSTORE POP PUSH1 0x0 SWAP1 DUP2 PUSH3 0x4A SWAP2 SWAP1 PUSH3 0x317 JUMP JUMPDEST POP PUSH1 0x40 MLOAD DUP1 PUSH1 0x60 ADD PUSH1 0x40 MSTORE DUP1 PUSH1 0x25 DUP2 MSTORE PUSH1 0x20 ADD PUSH3 0xA91 PUSH1 0x25 SWAP2 CODECOPY PUSH1 0x1 SWAP1 DUP2 PUSH3 0x75 SWAP2 SWAP1 PUSH3 0x463 JUMP JUMPDEST POP PUSH1 0x1 PUSH1 0x2 SWAP1 DUP2 PUSH3 0x88 SWAP2 SWAP1 PUSH3 0x577 JUMP JUMPDEST POP CALLVALUE DUP1 ISZERO PUSH3 0x96 JUMPI PUSH1 0x0 DUP1 REVERT JUMPDEST POP PUSH3 0x678 JUMP JUMPDEST PUSH1 0x0 DUP2 MLOAD SWAP1 POP SWAP2 SWAP1 POP JUMP JUMPDEST PUSH32 0x4E487B7100000000000000000000000000000000000000000000000000000000 PUSH1 0x0 MSTORE PUSH1 0x41 PUSH1 0x4 MSTORE PUSH1 0x24 PUSH1 0x0 REVERT JUMPDEST PUSH32 0x4E487B7100000000000000000000000000000000000000000000000000000000 PUSH1 0x0 MSTORE PUSH1 0x22 PUSH1 0x4 MSTORE PUSH1 0x24 PUSH1 0x0 REVERT JUMPDEST PUSH1 0x0 PUSH1 0x2 DUP3 DIV SWAP1 POP PUSH1 0x1 DUP3 AND DUP1 PUSH3 0x11F JUMPI PUSH1 0x7F DUP3 AND SWAP2 POP JUMPDEST PUSH1 0x20 DUP3 LT DUP2 SUB PUSH3 0x135 JUMPI PUSH3 0x134 PUSH3 0xD7 JUMP JUMPDEST JUMPDEST POP SWAP2 SWAP1 POP JUMP JUMPDEST PUSH1 0x0 DUP2 SWAP1 POP DUP2 PUSH1 0x0 MSTORE PUSH1 0x20 PUSH1 0x0 KECCAK256 SWAP1 POP SWAP2 SWAP1 POP JUMP JUMPDEST PUSH1 0x0 PUSH1 0x20 PUSH1 0x1F DUP4 ADD DIV SWAP1 POP SWAP2 SWAP1 POP JUMP JUMPDEST PUSH1 0x0 DUP3 DUP3 SHL SWAP1 POP SWAP3 SWAP2 POP POP JUMP JUMPDEST PUSH1 0x0 PUSH1 0x8 DUP4 MUL PUSH3 0x19F PUSH32 0xFFFFFFFFFFFFFFFFFFFFFFFFFFFFFFFFFFFFFFFFFFFFFFFFFFFFFFFFFFFFFFFF DUP3 PUSH3 0x160 JUMP JUMPDEST PUSH3 0x1AB DUP7 DUP4 PUSH3 0x160 JUMP JUMPDEST SWAP6 POP DUP1 NOT DUP5 AND SWAP4 POP DUP1 DUP7 AND DUP5 OR SWAP3 POP POP POP SWAP4 SWAP3 POP POP POP JUMP JUMPDEST PUSH1 0x0 DUP2 SWAP1 POP SWAP2 SWAP1 POP JUMP JUMPDEST PUSH1 0x0 DUP2 SWAP1 POP SWAP2 SWAP1 POP JUMP JUMPDEST PUSH1 0x0 PUSH3 0x1F8 PUSH3 0x1F2 PUSH3 0x1EC DUP5 PUSH3 0x1C3 JUMP JUMPDEST PUSH3 0x1CD JUMP JUMPDEST PUSH3 0x1C3 JUMP JUMPDEST SWAP1 POP SWAP2 SWAP1 POP JUMP JUMPDEST PUSH1 0x0 DUP2 SWAP1 POP SWAP2 SWAP1 POP JUMP JUMPDEST PUSH3 0x214 DUP4 PUSH3 0x1D7 JUMP JUMPDEST PUSH3 0x22C PUSH3 0x223 DUP3 PUSH3 0x1FF JUMP JUMPDEST DUP5 DUP5 SLOAD PUSH3 0x16D JUMP JUMPDEST DUP3 SSTORE POP POP POP POP JUMP JUMPDEST PUSH1 0x0 SWAP1 JUMP JUMPDEST PUSH3 0x243 PUSH3 0x234 JUMP JUMPDEST PUSH3 0x250 DUP2 DUP5 DUP5 PUSH3 0x209 JUMP JUMPDEST POP POP POP JUMP JUMPDEST JUMPDEST DUP2 DUP2 LT ISZERO PUSH3 0x278 JUMPI PUSH3 0x26C PUSH1 0x0 DUP3 PUSH3 0x239 JUMP JUMPDEST PUSH1 0x1 DUP2 ADD SWAP1 POP PUSH3 0x256 JUMP JUMPDEST POP POP JUMP JUMPDEST PUSH1 0x1F DUP3 GT ISZERO PUSH3 0x2C7 JUMPI PUSH3 0x291 DUP2 PUSH3 0x13B JUMP JUMPDEST PUSH3 0x29C DUP5 PUSH3 0x150 JUMP JUMPDEST DUP2 ADD PUSH1 0x20 DUP6 LT ISZERO PUSH3 0x2AC JUMPI DUP2 SWAP1 POP JUMPDEST PUSH3 0x2C4 PUSH3 0x2BB DUP6 PUSH3 0x150 JUMP JUMPDEST DUP4 ADD DUP3 PUSH3 0x255 JUMP JUMPDEST POP POP JUMPDEST POP POP POP JUMP JUMPDEST PUSH1 0x0 DUP3 DUP3 SHR SWAP1 POP SWAP3 SWAP2 POP POP JUMP JUMPDEST PUSH1 0x0 PUSH3 0x2EC PUSH1 0x0 NOT DUP5 PUSH1 0x8 MUL PUSH3 0x2CC JUMP JUMPDEST NOT DUP1 DUP4 AND SWAP2 POP POP SWAP3 SWAP2 POP POP JUMP JUMPDEST PUSH1 0x0 PUSH3 0x307 DUP4 DUP4 PUSH3 0x2D9 JUMP JUMPDEST SWAP2 POP DUP3 PUSH1 0x2 MUL DUP3 OR SWAP1 POP SWAP3 SWAP2 POP POP JUMP JUMPDEST PUSH3 0x322 DUP3 PUSH3 0x9D JUMP JUMPDEST PUSH8 0xFFFFFFFFFFFFFFFF DUP2 GT ISZERO PUSH3 0x33E JUMPI PUSH3 0x33D PUSH3 0xA8 JUMP JUMPDEST JUMPDEST PUSH3 0x34A DUP3 SLOAD PUSH3 0x106 JUMP JUMPDEST PUSH3 0x357 DUP3 DUP3 DUP6 PUSH3 0x27C JUMP JUMPDEST PUSH1 0x0 PUSH1 0x20 SWAP1 POP PUSH1 0x1F DUP4 GT PUSH1 0x1 DUP2 EQ PUSH3 0x38F JUMPI PUSH1 0x0 DUP5 ISZERO PUSH3 0x37A JUMPI DUP3 DUP8 ADD MLOAD SWAP1 POP JUMPDEST PUSH3 0x386 DUP6 DUP3 PUSH3 0x2F9 JUMP JUMPDEST DUP7 SSTORE POP PUSH3 0x3F6 JUMP JUMPDEST PUSH1 0x1F NOT DUP5 AND PUSH3 0x39F DUP7 PUSH3 0x13B JUMP JUMPDEST PUSH1 0x0 JUMPDEST DUP3 DUP2 LT ISZERO PUSH3 0x3C9 JUMPI DUP5 DUP10 ADD MLOAD DUP3 SSTORE PUSH1 0x1 DUP3 ADD SWAP2 POP PUSH1 0x20 DUP6 ADD SWAP5 POP PUSH1 0x20 DUP2 ADD SWAP1 POP PUSH3 0x3A2 JUMP JUMPDEST DUP7 DUP4 LT ISZERO PUSH3 0x3E9 JUMPI DUP5 DUP10 ADD MLOAD PUSH3 0x3E5 PUSH1 0x1F DUP10 AND DUP3 PUSH3 0x2D9 JUMP JUMPDEST DUP4 SSTORE POP JUMPDEST PUSH1 0x1 PUSH1 0x2 DUP9 MUL ADD DUP9 SSTORE POP POP POP JUMPDEST POP POP POP POP POP POP JUMP JUMPDEST PUSH1 0x0 DUP2 SWAP1 POP DUP2 PUSH1 0x0 MSTORE PUSH1 0x20 PUSH1 0x0 KECCAK256 SWAP1 POP SWAP2 SWAP1 POP JUMP JUMPDEST PUSH1 0x1F DUP3 GT ISZERO PUSH3 0x45E JUMPI PUSH3 0x428 DUP2 PUSH3 0x3FE JUMP JUMPDEST PUSH3 0x433 DUP5 PUSH3 0x150 JUMP JUMPDEST DUP2 ADD PUSH1 0x20 DUP6 LT ISZERO PUSH3 0x443 JUMPI DUP2 SWAP1 POP JUMPDEST PUSH3 0x45B PUSH3 0x452 DUP6 PUSH3 0x150 JUMP JUMPDEST DUP4 ADD DUP3 PUSH3 0x255 JUMP JUMPDEST POP POP JUMPDEST POP POP POP JUMP JUMPDEST PUSH3 0x46E DUP3 PUSH3 0x9D JUMP JUMPDEST PUSH8 0xFFFFFFFFFFFFFFFF DUP2 GT ISZERO PUSH3 0x48A JUMPI PUSH3 0x489 PUSH3 0xA8 JUMP JUMPDEST JUMPDEST PUSH3 0x496 DUP3 SLOAD PUSH3 0x106 JUMP JUMPDEST PUSH3 0x4A3 DUP3 DUP3 DUP6 PUSH3 0x413 JUMP JUMPDEST PUSH1 0x0 PUSH1 0x20 SWAP1 POP PUSH1 0x1F DUP4 GT PUSH1 0x1 DUP2 EQ PUSH3 0x4DB JUMPI PUSH1 0x0 DUP5 ISZERO PUSH3 0x4C6 JUMPI DUP3 DUP8 ADD MLOAD SWAP1 POP JUMPDEST PUSH3 0x4D2 DUP6 DUP3 PUSH3 0x2F9 JUMP JUMPDEST DUP7 SSTORE POP PUSH3 0x542 JUMP JUMPDEST PUSH1 0x1F NOT DUP5 AND PUSH3 0x4EB DUP7 PUSH3 0x3FE JUMP JUMPDEST PUSH1 0x0 JUMPDEST DUP3 DUP2 LT ISZERO PUSH3 0x515 JUMPI DUP5 DUP10 ADD MLOAD DUP3 SSTORE PUSH1 0x1 DUP3 ADD SWAP2 POP PUSH1 0x20 DUP6 ADD SWAP5 POP PUSH1 0x20 DUP2 ADD SWAP1 POP PUSH3 0x4EE JUMP JUMPDEST DUP7 DUP4 LT ISZERO PUSH3 0x535 JUMPI DUP5 DUP10 ADD MLOAD PUSH3 0x531 PUSH1 0x1F DUP10 AND DUP3 PUSH3 0x2D9 JUMP JUMPDEST DUP4 SSTORE POP JUMPDEST PUSH1 0x1 PUSH1 0x2 DUP9 MUL ADD DUP9 SSTORE POP POP POP JUMPDEST POP POP POP POP POP POP JUMP JUMPDEST PUSH1 0x0 DUP2 SLOAD SWAP1 POP PUSH3 0x55B DUP2 PUSH3 0x106 JUMP JUMPDEST SWAP1 POP SWAP2 SWAP1 POP JUMP JUMPDEST PUSH1 0x0 DUP2 SWAP1 POP DUP2 PUSH1 0x0 MSTORE PUSH1 0x20 PUSH1 0x0 KECCAK256 SWAP1 POP SWAP2 SWAP1 POP JUMP JUMPDEST DUP2 DUP2 SUB PUSH3 0x587 JUMPI POP POP PUSH3 0x676 JUMP JUMPDEST PUSH3 0x592 DUP3 PUSH3 0x54A JUMP JUMPDEST PUSH8 0xFFFFFFFFFFFFFFFF DUP2 GT ISZERO PUSH3 0x5AE JUMPI PUSH3 0x5AD PUSH3 0xA8 JUMP JUMPDEST JUMPDEST PUSH3 0x5BA DUP3 SLOAD PUSH3 0x106 JUMP JUMPDEST PUSH3 0x5C7 DUP3 DUP3 DUP6 PUSH3 0x27C JUMP JUMPDEST PUSH1 0x0 PUSH1 0x1F DUP4 GT PUSH1 0x1 DUP2 EQ PUSH3 0x5FB JUMPI PUSH1 0x0 DUP5 ISZERO PUSH3 0x5E6 JUMPI DUP3 DUP8 ADD SLOAD SWAP1 POP JUMPDEST PUSH3 0x5F2 DUP6 DUP3 PUSH3 0x2F9 JUMP JUMPDEST DUP7 SSTORE POP PUSH3 0x66F JUMP JUMPDEST PUSH1 0x1F NOT DUP5 AND PUSH3 0x60B DUP8 PUSH3 0x562 JUMP JUMPDEST SWAP7 POP PUSH3 0x618 DUP7 PUSH3 0x13B JUMP JUMPDEST PUSH1 0x0 JUMPDEST DUP3 DUP2 LT ISZERO PUSH3 0x642 JUMPI DUP5 DUP10 ADD SLOAD DUP3 SSTORE PUSH1 0x1 DUP3 ADD SWAP2 POP PUSH1 0x1 DUP6 ADD SWAP5 POP PUSH1 0x20 DUP2 ADD SWAP1 POP PUSH3 0x61B JUMP JUMPDEST DUP7 DUP4 LT ISZERO PUSH3 0x662 JUMPI DUP5 DUP10 ADD SLOAD PUSH3 0x65E PUSH1 0x1F DUP10 AND DUP3 PUSH3 0x2D9 JUMP JUMPDEST DUP4 SSTORE POP JUMPDEST PUSH1 0x1 PUSH1 0x2 DUP9 MUL ADD DUP9 SSTORE POP POP POP JUMPDEST POP POP POP POP POP POP JUMPDEST JUMP JUMPDEST PUSH2 0x409 DUP1 PUSH3 0x688 PUSH1 0x0 CODECOPY PUSH1 0x0 RETURN INVALID PUSH1 0x80 PUSH1 0x40 MSTORE CALLVALUE DUP1 ISZERO PUSH2 0x10 JUMPI PUSH1 0x0 DUP1 REVERT JUMPDEST POP PUSH1 0x4 CALLDATASIZE LT PUSH2 0x41 JUMPI PUSH1 0x0 CALLDATALOAD PUSH1 0xE0 SHR DUP1 PUSH4 0x3EC1AC8B EQ PUSH2 0x46 JUMPI DUP1 PUSH4 0x7E7D629B EQ PUSH2 0x64 JUMPI DUP1 PUSH4 0xD9B0F4AC EQ PUSH2 0x82 JUMPI JUMPDEST PUSH1 0x0 DUP1 REVERT JUMPDEST PUSH2 0x4E PUSH2 0xA0 JUMP JUMPDEST PUSH1 0x40 MLOAD PUSH2 0x5B SWAP2 SWAP1 PUSH2 0x2DA JUMP JUMPDEST PUSH1 0x40 MLOAD DUP1 SWAP2 SUB SWAP1 RETURN JUMPDEST PUSH2 0x6C PUSH2 0x12E JUMP JUMPDEST PUSH1 0x40 MLOAD PUSH2 0x79 SWAP2 SWAP1 PUSH2 0x351 JUMP JUMPDEST PUSH1 0x40 MLOAD DUP1 SWAP2 SUB SWAP1 RETURN JUMPDEST PUSH2 0x8A PUSH2 0x1BC JUMP JUMPDEST PUSH1 0x40 MLOAD PUSH2 0x97 SWAP2 SWAP1 PUSH2 0x2DA JUMP JUMPDEST PUSH1 0x40 MLOAD DUP1 SWAP2 SUB SWAP1 RETURN JUMPDEST PUSH1 0x0 DUP1 SLOAD PUSH2 0xAD SWAP1 PUSH2 0x3A2 JUMP JUMPDEST DUP1 PUSH1 0x1F ADD PUSH1 0x20 DUP1 SWAP2 DIV MUL PUSH1 0x20 ADD PUSH1 0x40 MLOAD SWAP1 DUP2 ADD PUSH1 0x40 MSTORE DUP1 SWAP3 SWAP2 SWAP1 DUP2 DUP2 MSTORE PUSH1 0x20 ADD DUP3 DUP1 SLOAD PUSH2 0xD9 SWAP1 PUSH2 0x3A2 JUMP JUMPDEST DUP1 ISZERO PUSH2 0x126 JUMPI DUP1 PUSH1 0x1F LT PUSH2 0xFB JUMPI PUSH2 0x100 DUP1 DUP4 SLOAD DIV MUL DUP4 MSTORE SWAP2 PUSH1 0x20 ADD SWAP2 PUSH2 0x126 JUMP JUMPDEST DUP3 ADD SWAP2 SWAP1 PUSH1 0x0 MSTORE PUSH1 0x20 PUSH1 0x0 KECCAK256 SWAP1 JUMPDEST DUP2 SLOAD DUP2 MSTORE SWAP1 PUSH1 0x1 ADD SWAP1 PUSH1 0x20 ADD DUP1 DUP4 GT PUSH2 0x109 JUMPI DUP3 SWAP1 SUB PUSH1 0x1F AND DUP3 ADD SWAP2 JUMPDEST POP POP POP POP POP DUP2 JUMP JUMPDEST PUSH1 0x1 DUP1 SLOAD PUSH2 0x13B SWAP1 PUSH2 0x3A2 JUMP JUMPDEST DUP1 PUSH1 0x1F ADD PUSH1 0x20 DUP1 SWAP2 DIV MUL PUSH1 0x20 ADD PUSH1 0x40 MLOAD SWAP1 DUP2 ADD PUSH1 0x40 MSTORE DUP1 SWAP3 SWAP2 SWAP1 DUP2 DUP2 MSTORE PUSH1 0x20 ADD DUP3 DUP1 SLOAD PUSH2 0x167 SWAP1 PUSH2 0x3A2 JUMP JUMPDEST DUP1 ISZERO PUSH2 0x1B4 JUMPI DUP1 PUSH1 0x1F LT PUSH2 0x189 JUMPI PUSH2 0x100 DUP1 DUP4 SLOAD DIV MUL DUP4 MSTORE SWAP2 PUSH1 0x20 ADD SWAP2 PUSH2 0x1B4 JUMP JUMPDEST DUP3 ADD SWAP2 SWAP1 PUSH1 0x0 MSTORE PUSH1 0x20 PUSH1 0x0 KECCAK256 SWAP1 JUMPDEST DUP2 SLOAD DUP2 MSTORE SWAP1 PUSH1 0x1 ADD SWAP1 PUSH1 0x20 ADD DUP1 DUP4 GT PUSH2 0x197 JUMPI DUP3 SWAP1 SUB PUSH1 0x1F AND DUP3 ADD SWAP2 JUMPDEST POP POP POP POP POP DUP2 JUMP JUMPDEST PUSH1 0x2 DUP1 SLOAD PUSH2 0x1C9 SWAP1 PUSH2 0x3A2 JUMP JUMPDEST DUP1 PUSH1 0x1F ADD PUSH1 0x20 DUP1 SWAP2 DIV MUL PUSH1 0x20 ADD PUSH1 0x40 MLOAD SWAP1 DUP2 ADD PUSH1 0x40 MSTORE DUP1 SWAP3 SWAP2 SWAP1 DUP2 DUP2 MSTORE PUSH1 0x20 ADD DUP3 DUP1 SLOAD PUSH2 0x1F5 SWAP1 PUSH2 0x3A2 JUMP JUMPDEST DUP1 ISZERO PUSH2 0x242 JUMPI DUP1 PUSH1 0x1F LT PUSH2 0x217 JUMPI PUSH2 0x100 DUP1 DUP4 SLOAD DIV MUL DUP4 MSTORE SWAP2 PUSH1 0x20 ADD SWAP2 PUSH2 0x242 JUMP JUMPDEST DUP3 ADD SWAP2 SWAP1 PUSH1 0x0 MSTORE PUSH1 0x20 PUSH1 0x0 KECCAK256 SWAP1 JUMPDEST DUP2 SLOAD DUP2 MSTORE SWAP1 PUSH1 0x1 ADD SWAP1 PUSH1 0x20 ADD DUP1 DUP4 GT PUSH2 0x225 JUMPI DUP3 SWAP1 SUB PUSH1 0x1F AND DUP3 ADD SWAP2 JUMPDEST POP POP POP POP POP DUP2 JUMP JUMPDEST PUSH1 0x0 DUP2 MLOAD SWAP1 POP SWAP2 SWAP1 POP JUMP JUMPDEST PUSH1 0x0 DUP3 DUP3 MSTORE PUSH1 0x20 DUP3 ADD SWAP1 POP SWAP3 SWAP2 POP POP JUMP JUMPDEST PUSH1 0x0 JUMPDEST DUP4 DUP2 LT ISZERO PUSH2 0x284 JUMPI DUP1 DUP3 ADD MLOAD DUP2 DUP5 ADD MSTORE PUSH1 0x20 DUP2 ADD SWAP1 POP PUSH2 0x269 JUMP JUMPDEST PUSH1 0x0 DUP5 DUP5 ADD MSTORE POP POP POP POP JUMP JUMPDEST PUSH1 0x0 PUSH1 0x1F NOT PUSH1 0x1F DUP4 ADD AND SWAP1 POP SWAP2 SWAP1 POP JUMP JUMPDEST PUSH1 0x0 PUSH2 0x2AC DUP3 PUSH2 0x24A JUMP JUMPDEST PUSH2 0x2B6 DUP2 DUP6 PUSH2 0x255 JUMP JUMPDEST SWAP4 POP PUSH2 0x2C6 DUP2 DUP6 PUSH1 0x20 DUP7 ADD PUSH2 0x266 JUMP JUMPDEST PUSH2 0x2CF DUP2 PUSH2 0x290 JUMP JUMPDEST DUP5 ADD SWAP2 POP POP SWAP3 SWAP2 POP POP JUMP JUMPDEST PUSH1 0x0 PUSH1 0x20 DUP3 ADD SWAP1 POP DUP2 DUP2 SUB PUSH1 0x0 DUP4 ADD MSTORE PUSH2 0x2F4 DUP2 DUP5 PUSH2 0x2A1 JUMP JUMPDEST SWAP1 POP SWAP3 SWAP2 POP POP JUMP JUMPDEST PUSH1 0x0 DUP2 MLOAD SWAP1 POP SWAP2 SWAP1 POP JUMP JUMPDEST PUSH1 0x0 DUP3 DUP3 MSTORE PUSH1 0x20 DUP3 ADD SWAP1 POP SWAP3 SWAP2 POP POP JUMP JUMPDEST PUSH1 0x0 PUSH2 0x323 DUP3 PUSH2 0x2FC JUMP JUMPDEST PUSH2 0x32D DUP2 DUP6 PUSH2 0x307 JUMP JUMPDEST SWAP4 POP PUSH2 0x33D DUP2 DUP6 PUSH1 0x20 DUP7 ADD PUSH2 0x266 JUMP JUMPDEST PUSH2 0x346 DUP2 PUSH2 0x290 JUMP JUMPDEST DUP5 ADD SWAP2 POP POP SWAP3 SWAP2 POP POP JUMP JUMPDEST PUSH1 0x0 PUSH1 0x20 DUP3 ADD SWAP1 POP DUP2 DUP2 SUB PUSH1 0x0 DUP4 ADD MSTORE PUSH2 0x36B DUP2 DUP5 PUSH2 0x318 JUMP JUMPDEST SWAP1 POP SWAP3 SWAP2 POP POP JUMP JUMPDEST PUSH32 0x4E487B7100000000000000000000000000000000000000000000000000000000 PUSH1 0x0 MSTORE PUSH1 0x22 PUSH1 0x4 MSTORE PUSH1 0x24 PUSH1 0x0 REVERT JUMPDEST PUSH1 0x0 PUSH1 0x2 DUP3 DIV SWAP1 POP PUSH1 0x1 DUP3 AND DUP1 PUSH2 0x3BA JUMPI PUSH1 0x7F DUP3 AND SWAP2 POP JUMPDEST PUSH1 0x20 DUP3 LT DUP2 SUB PUSH2 0x3CD JUMPI PUSH2 0x3CC PUSH2 0x373 JUMP JUMPDEST JUMPDEST POP SWAP2 SWAP1 POP JUMP INVALID LOG2 PUSH5 0x6970667358 0x22 SLT KECCAK256 0xE3 0xBE SDIV 0xBD 0x5D 0xD5 PUSH13 0x70C10E7C52987C64EA690A40D5 PUSH24 0xEC6953B38D3851D7B9B67364736F6C634300081100334D65 PUSH19 0x686162612064756E79612062656E20736F6C69 PUSH5 0x6974792079 PUSH2 0x7A69 PUSH26 0x6F72756D21000000000000000000000000000000000000000000 "
				},
				"gasEstimates": {
					"creation": {
						"codeDepositCost": "206600",
						"executionCost": "infinite",
						"totalCost": "infinite"
					},
					"external": {
						"convertedText()": "infinite",
						"merhaba()": "infinite",
						"metin()": "infinite"
					}
				},
				"methodIdentifiers": {
					"convertedText()": "d9b0f4ac",
					"merhaba()": "7e7d629b",
					"metin()": "3ec1ac8b"
				}
			},
			"storageLayout": {
				"storage": [
					{
						"astId": 4,
						"contract": "contracts/StringAndBytes.sol:StringAndBytes",
						"label": "metin",
						"offset": 0,
						"slot": "0",
						"type": "t_string_storage"
					},
					{
						"astId": 7,
						"contract": "contracts/StringAndBytes.sol:StringAndBytes",
						"label": "merhaba",
						"offset": 0,
						"slot": "1",
						"type": "t_bytes_storage"
					},
					{
						"astId": 13,
						"contract": "contracts/StringAndBytes.sol:StringAndBytes",
						"label": "convertedText",
						"offset": 0,
						"slot": "2",
						"type": "t_string_storage"
					}
				],
				"types": {
					"t_bytes_storage": {
						"encoding": "bytes",
						"label": "bytes",
						"numberOfBytes": "32"
					},
					"t_string_storage": {
						"encoding": "bytes",
						"label": "string",
						"numberOfBytes": "32"
					}
				}
			},
			"userdoc": {
				"kind": "user",
				"methods": {},
				"version": 1
			}
		}
	}
}